:020000040800F2
:1000000078F40320C1010008670E00088B02000885
:10001000630E0008CF0C0008251200080000000045
:1000200000000000000000000000000009100008AF
:10003000D30C000800000000130200080B10000899
:10004000DB010008DB010008DB010008E10F00080C
:10005000DB010008DB010008DB010008E10C0008FF
:10006000DB010008DB010008DB010008DB01000800
:10007000DB010008DB010008DB010008DB010008F0
:10008000DB010008DB010008DB010008DB010008E0
:10009000DB010008DB010008DB010008DB010008D0
:1000A000DB010008DB010008DB010008DB010008C0
:1000B000DB010008DB010008DB010008DB010008B0
:1000C000DB010008DB010008DB010008DB010008A0
:1000D000DB010008A5110008E5110008DB0100089C
:1000E000DB010008DB010008DB010008DB01000880
:1000F000DB010008DB010008DB010008DB01000870
:10010000DB010008DB010008DB010008DB0100085F
:1001100065110008DB010008DB010008DB010008B5
:10012000DB010008DB010008DB010008DB0100083F
:10013000DB010008DB010008DB010008DB0100082F
:10014000DB010008DB010008DB010008DB0100081F
:1001500000000000DB010008DB010008DB010008F3
:10016000DB010008DB0100080000000000000000C7
:100170000000000000000000DB010008DB010008B7
:10018000DB01000800000000DB010008DB010008C3
:10019000000000000000000000000000000000005F
:1001A000DB010008DB010008DFF80CD000F052FD95
:1001B00000480047F324010878F4032040BA704750
:1001C0000648804706480047FEE7FEE7FEE7FEE7F1
:1001D000FEE7FEE7FEE7FEE7FEE7FEE71D1000088C
:1001E000A9010008EFF3108072B6704780F3108801
:1001F0007047324A1368012B04D04FF0010313609B
:100200002F4A10602F4A11602F484FF08051016033
:100210007047EFF3108272B62848016891B14FF031
:10022000000101602648016829B1EFF3098121E945
:10023000F00F00680160234909680968B1E8F00F10
:1002400081F3098882F310884EF0040E70471D492F
:1002500008601B494FF00000086018494FF001008A
:1002600008601A484FF47F01D0F8002041EA0201EB
:10027000016015484FF08051016015480068006822
:1002800080F3088861B662B670471EF0040F14BF91
:10029000EFF30880EFF3098020E9F00F40F804ED58
:1002A00014BF80F3088880F3098800B512F006FEB9
:1002B0005DF804EB4EF0040E704700002C000020A7
:1002C000240000202800002004ED00E020ED00E0E4
:1002D00008ED00E02DE9F05F0546002092469B46C0
:1002E00088460646814640241BE02846414647464C
:1002F000224600F0C8FB53465A46C01A914110D31B
:1003000011461846224600F0AFFB2D1A67EB010894
:100310004F4622460120002100F0A6FB17EB000902
:100320004E41201EA4F10104DFDC484631462A4636
:100330004346BDE8F09F2DE9FE43994615468846A1
:10034000074601AC022942D3002D40D00020029084
:10035000A8F101004FF0FF36009022E000FB05728B
:1003600001FB057011464A469047002805DC54F809
:100370002600304444F8260013E060682A4600FB5B
:10038000057154F8040C00FB057007E00B7890F839
:1003900000C001F801CB00F8013B521E002AF5D144
:1003A000764254F8040C61688842D7DC4B462A46F2
:1003B0003846FFF7C0FF54F8040C4B46A8EB000189
:1003C000401C00FB05702A46491EFFF7B4FFBDE83C
:1003D000FE8340EA01039B0703D009E008C9121F0E
:1003E00008C0042AFAD203E011F8013B00F8013BEF
:1003F000521EF9D27047D2B201E000F8012B491E1B
:10040000FBD270470022F6E710B513460A460446B1
:100410001946FFF7F0FF204610BD421C10F8011BE3
:100420000029FBD1801A704710B5002200E0521C51
:10043000835C8C5CA34201D1002BF8D1D8B2E1B22D
:10044000401A10BD034611F8012B00F8012B002AB9
:10045000F9D118467047F0B480EA0102D40F420087
:10046000B2EB410F02D20246084611464A0042D082
:10047000C30DDDB2C1F3C752AD1A202D35DAC1F379
:10048000160141F4000204B15242C5F1200602FAFD
:1004900006F12A411044B3EBD05F23D0C4B1012D43
:1004A000A0EBC35009DCF0BC4FF0004202EAC3529B
:1004B000DBB200F5000000F011BB400000F18070DD
:1004C00000EBC350A0F1807040EAD170490009E010
:1004D000490841EAC071A0EBC35000F50000400894
:1004E00000EBC350F0BC00F0F0BA6142012202EB15
:1004F0004101001BF6E7F0BC704781F00041AAE71C
:1005000080F00040A7E780EA010210B502F0004346
:10051000400022D04A001FD0010E01EB1261C0F34F
:100520005600C2F3560240F4000042F40002A0FB61
:10053000022000047F39140400D0401C50EA12400D
:1005400001D44000491EC2B20C0604EBD010401C7E
:100550004008802A02D003E0002010BD20F00100F6
:10056000002900DA0020184310BD30B480EA0102EF
:1005700002F0004530F0004221F0004013D090B16D
:10058000C30DD40DC2F31601C0F31600E41A41F4F2
:10059000000140F400027D34914201D3641C00E06C
:1005A0004900002C02DA30BC002070474FF40000F4
:1005B0000023914201D3891A034340084FEA4101C5
:1005C000F7D151B1914202D14FF0004105E002D282
:1005D0004FF0010101E06FF0010103EBC45028442A
:1005E00030BC00F072BA2DE9FE4F804681EA03006C
:1005F000C00F0C46009021F0004123F00045B8EBFD
:100600000200A94105D24046214690461C460B46B1
:10061000024623F00040104347D0270DC7F30A00DD
:10062000C3F30A510290401A019040286BDAC3F3D9
:10063000130040F4801B0098924620B10023D2EBB7
:10064000030A63EB0B0B01985946C0F14002504678
:1006500000F00AFA06460D4650465946019A00F047
:1006600022FA10EB08006141002487EA115284EA63
:10067000E7731A4340D0009A62B3019A012A4FEA05
:10068000075215DC001B61EB02014FF0004202EA49
:100690000752CDE90042001C41F5801132462B463D
:1006A00000F059FA03B0BDE8F08F40462146F9E763
:1006B000001B61EB0201001C41F5801300185B4137
:1006C0002018A2F5001747EB030140EAD570B619D0
:1006D0006D4111E06D084FEA360645EAC0754FEAF4
:1006E0000752001B61EB0201001C41F58011490813
:1006F0004FEA30000019514132462B4603B0BDE8A5
:10070000F04F00F019BA0098012240000023D0EB0E
:10071000020263EBE073009821464FEAE074B8EB05
:10072000000061EB0401E9E783F000435BE781F03F
:10073000004158E72DE9FE4F81EA030404F000442C
:1007400021F0004100944FF0000B23F0004350EAE9
:1007500001045ED052EA03045BD0C3F30A54C1F330
:100760000A552C44A4F2F3340194A0FB0254C1F3C3
:10077000130141F48011C3F3130343F4801301FB0D
:10078000024400FB034E840A970A44EA815447EA74
:100790008357A4FB076802958D0A05FB07854FEA7E
:1007A000932C04FB0C542705029D4FEA065847EA98
:1007B0001637B5EB08056EEB070C870E920E47EA6D
:1007C000811742EA8312A7FB0201B6EB0B0164EB2F
:1007D00000042B0D43EA0C335E1844EB1C50DA4640
:1007E0005146E7FB0201C5F313044FEA0B3343EA1A
:1007F00014534FEA0432019C43EA0603A4F10C04AB
:100800000294009CCDE900B400F0A5F903B0BDE866
:10081000F08F00200146F9E72DE9F04D81EA03044D
:1008200004F0004B21F0004514464FF0000A23F07D
:10083000004150EA050220D054EA01021DD0C5F360
:100840000A570246C5F31303C1F31300C1F30A5656
:1008500040F4801543F48013A7EB0608101BD6461E
:1008600008F2FD3873EB050002D308F1010801E03E
:1008700092185B41B8F1000F03DA00200146BDE891
:10088000F08D00204FF48011064684460EE0171BC1
:1008900073EB050705D3121B63EB050306434CEA14
:1008A000010C49084FEA300092185B4150EA0107F9
:1008B000EDD152EA030012D082EA040083EA050176
:1008C000084305D0101BAB4106D20122002306E0ED
:1008D00000224FF0004302E06FF0010253101AEBC8
:1008E00006004CEB085110EB0A0041EB0B01BDE890
:1008F000F04D00F021B9C10F80EAE0700844CA074A
:100900009623002100F0EAB896230022114600F059
:10091000E5B80EB540F2334102910021CDE9001156
:100920000A460B4600F017F903B000BD00F0004284
:1009300020F00040C10DC0F3160040F400007F29F4
:1009400001DA00207047962903DCC1F19601C84006
:1009500001E096398840002AF4D04042704720F0E8
:100960000040C10DC0F3160040F400007F2901DAF9
:1009700000207047962903DCC1F19601C8407047FA
:1009800096398840704700F0004230F000400AD0AD
:10099000C10D01F56071C0F3160042EA0151C208B1
:1009A00040071143704700200146704730B5041ED0
:1009B00071F1000404DB4FF00044404264EB01019C
:1009C000141E73F1000405DB1C464FF00043524235
:1009D00063EB04038B4208BF824230BD01F0004349
:1009E00030B421F0004150EA010206D00A0DA2F510
:1009F0006072C1F31301002A02DC30BC0020704792
:100A0000440F44EAC104C100E01830BC00EBC250FE
:100A100000F05BB8002801DBC0F10040002901DBD9
:100A2000C1F1004181427047002801DBC0F1004064
:100A3000002901DBC1F100418842704730B50B4607
:100A4000014600202022012409E021FA02F59D42FE
:100A500005D303FA02F5491B04FA02F52844151ED2
:100A6000A2F10102F1DC30BD202A04DB203A00FAB9
:100A700002F1002070479140C2F1200320FA03F3F5
:100A8000194390407047202A04DB203A21FA02F0F3
:100A90000021704721FA02F3D040C2F120029140B8
:100AA000084319467047202A06DBCB17203A41FA43
:100AB00002F043EAE07306E041FA02F3D040C2F1EB
:100AC000200291400843194670470029A8BF70478B
:100AD000401C490008BF20F00100704710B4B0FA74
:100AE00080FC00FA0CF050EA010404BF10BC70470F
:100AF00049B1CCF1200421FA04F411FA0CF118BF29
:100B0000012121430843A3EB0C01CB1D4FEA0061F7
:100B10004FEA102042BF002010BC704700EBC350CA
:100B200010440029A4BF10BC7047401C490008BFF6
:100B300020F0010010BC704710B5141E73F10004C2
:100B400008DA401C41F1000192185B411A4301D1BF
:100B500020F0010010BD2DE9F04D92469B4611B1E9
:100B6000B1FA81F202E0B0FA80F220329046FFF74B
:100B70007BFF04460F4640EA0A0041EA0B01534658
:100B80005A46084313D0114653EA010019D0C8F160
:100B900040025046FFF777FF05460E46504659463D
:100BA0004246FFF761FF084305D0012004E02046DC
:100BB0003946BDE8F08D0020054346EAE0762C4337
:100BC00037430A986305E40AA0EB08000022FD0AF7
:100BD00044EA47540A3002D500200146E9E70105FE
:100BE00010196941DDE9084500196941BDE8F04D7A
:100BF000A2E7C1F30A52C1F3130140F2FF3341F4FB
:100C000080119A4202DA00200146704740F23343D5
:100C10009A42A2F2334202DC5242FFF734BFFFF79E
:100C200023BF000030B5041E71F1000404DB4FF057
:100C30000044404264EB0101141E73F1000405DB23
:100C40001C464FF00043524263EB0403994208BF35
:100C5000904230BD064C074D06E0E06840F00103CD
:100C600094E8070098471034AC42F6D3FFF7A0FA97
:100C700030F8020850F8020870B58C1810F8015BC3
:100C800015F0070301D110F8013B2A1106D110F825
:100C9000012B03E010F8016B01F8016B5B1EF9D129
:100CA0002B0705D40023521E0DD401F8013BFAE7AF
:100CB00010F8013BCB1A921C03E013F8015B01F81A
:100CC000015B521EF9D5A142D8D3002070BD00BFF0
:100CD000FEE7704700E0401E0028FCD1704700008E
:100CE00008B5022001F042FE78B10120009012F018
:100CF0001DF9022001F034FE012269460348006814
:100D000012F0CCFB12F02CF900BF08BDF00300205C
:100D100008B56B4602220321382001F0DAFF9DF866
:100D200001009DF8001001F00F0140EA012008BD0C
:100D300008B56B4602220521382001F0CAFF9DF854
:100D400001009DF8001001F00F0140EA012008BDEC
:100D500010B502460020521C002305E0147804441C
:100D6000E0B2521C5C1CE3B28C1E9C42F6DCC44315
:100D7000641CE0B210BD000070B50546002416F0FA
:100D800091FA002618E0102010490860012001F0B7
:100D9000B1FA10200D49091F08606006040E2021D9
:100DA0000A48143801F0E2FE08B1601CC4B2012008
:100DB00001F0A0FA701CC6B2082EE4DB15B914F0DD
:100DC00041FE01E014F024FE204670BD140C0140E9
:100DD00070B5044616F070FA10201249086000251C
:100DE0001DE0E00920B120200E49091F086002E043
:100DF00020200C4908606006040E012001F07AFAF8
:100E000010200849091F0860012001F073FA102022
:100E100004490860012001F06DFA681CC5B2082D74
:100E2000DFDB70BD140C01400146CA1701EB927262
:100E30009210A1EB820292B9642091FBF0F200FBC8
:100E4000121050B94FF4C87091FBF0F200FB121071
:100E500008B9012070470020FCE70120FAE70020D4
:100E6000F8E700BFFEE7704770B5002600240025B4
:100E700013F090F906463848B6FBF0F4374800887E
:100E8000A0423CD035490C8040F2B27510E02846B3
:100E9000FFF7CAFF40B1B4F5B77F02D3A4F5B7742A
:100EA00004E0681C85B206E0A4F26D14681C85B2EB
:100EB000B4F5B67FEBD800BF29488580002516E041
:100EC00027498888FFF7B0FF30B1012D04D11D2CD0
:100ED00001D31D3C09E00CE02248405DA04203D84C
:100EE0002048405D241A00E003E0681C85B21C2CF9
:100EF000E6D200BF681C1A498871601CC871164888
:100F0000B6FBF0F100FB11644FF46160B4FBF0F04C
:100F1000134908704FF46160B4FBF0F100FB11401D
:100F20003C21B0FBF1F00E4948704FF46160B4FB16
:100F3000F0F100FB11403C21B0FBF1F201FB12008B
:100F4000074988700B46DA799979988800F00CF88F
:100F500003490872002070BD805101001C00002070
:100F600078DC022040770108F0B503460C461546B0
:100F7000642093FBF0F0C6B2642093FBF0F700FB13
:100F80001730C1B2132E02DD01F16400C1B2084670
:100F9000CF1701EB977701EBA707BAB2072092FBB7
:100FA000F0F700FB172082B25719601EDFF82CC043
:100FB0001CF80000384482B2CF1701EB9777BF10BE
:100FC000A1EB87071FB9032C01DA501E82B207205C
:100FD00092FBF0F700FB1720C0B2F0BD3477010898
:100FE00010B5012013F0F8F808B1FFF73DFF02201B
:100FF00013F0F2F810B1022013F0E6F8052013F018
:10100000E3F813F0FDF810BD704710B511F08EFF36
:1010100012F002FF11F0A4FF10BD000010B51E4831
:10102000006840F001001C490860084640681B4900
:10103000084019494860084600681949084016499F
:1010400008600846006820F4802008600846406870
:1010500014490840104948600846006820F0A05034
:1010600008600020C8624FF47F00886000200A49B1
:10107000803108600848D0F8900020F08050064980
:10108000903108604FF48000091D08600648091D72
:10109000086013F003FB10BD001002400C00FFE0DD
:1010A000FFFFF6FEFFFF00DF1030002070B50546A1
:1010B000002416F019FB00261BE0402012490860AE
:1010C000012014F04AF940200F49091F086060060A
:1010D000040E80210C48143801F048FD08B1601C52
:1010E000C4B2012014F039F9012014F036F9701C53
:1010F000C6B2082EE1DB15B916F0C4FA01E016F00D
:10110000A7FA204670BD0000140C014070B50446DB
:1011100016F0F4FA40201249086000251DE0E009AD
:1011200020B180200E49091F086002E080200C4990
:1011300008606006040E012014F00FF940200849F1
:10114000091F0860012014F008F9402004490860D4
:10115000012014F002F9681CC5B2082DDFDB70BD58
:10116000140C014008B511F0E1FE05210B4814F004
:1011700089F878B1094813F0FFFFC0B2009001224E
:1011800069460748006812F089F90521034814F000
:101190006CF800BF11F0E4FE08BD0000004C0040F8
:1011A0000001002008B511F0C1FE05210B4814F024
:1011B00069F878B1094813F0DFFFC0B2009001224E
:1011C00069460748006812F069F90521034814F0E0
:1011D0004CF800BF11F0C4FE08BD0000003801400B
:1011E0000C01002008B511F0A1FE05210B4814F0F8
:1011F00049F878B1094813F0BFFFC0B2009001224E
:1012000069460748006812F049F90521034814F0BF
:101210002CF800BF11F0A4FE08BD000000440040FF
:101220001401002000BFFEE70146481EB0F1807F98
:1012300001D301207047481E4FF0E0225061FF208B
:10124000044A107000204FF0E022906107201061E6
:101250000020EFE723ED00E00FB4084B10B504A920
:1012600002AA039800F00EF9044602A9002000F03B
:101270003FFD204610BC5DF814FB0000F11C000887
:10128000014609B900207047C8B220B1C8B20E4A61
:10129000105C401CF7E701F47F4028B10A48C1F315
:1012A0000722805C0930EEE701F47F0028B1064890
:1012B000C1F30742805C1130E5E7034800EB1160A1
:1012C00000781930DFE700004C77010802E008C819
:1012D000121F08C1002AFAD170477047002001E0B0
:1012E00001C1121F002AFBD1704700002DE9FF5FEA
:1012F00082B00021DDE90430020DDDF840B0034387
:1013000018D044F61050A2F2FF324243151411983F
:1013100001281FD0A5EB0B00401C5FEA000A4FF02C
:1013200000064E4FDFF83891B046504615D5CAF149
:10133000000413E0119801244AA3012801D16FEAA7
:101340000B010298119AC0E90031C0E9024206B0CF
:10135000BDE8F09FCBF10000DFE704460021404AE2
:10136000491842EB0450CDE9001012E0E00707D025
:1013700032463B4640464946FFF7DCF980468946FF
:1013800032463B4610461946FFF7D4F906460F464B
:101390006410002CEAD1DDE90401DDE90023BAF193
:1013A000000F06DAFFF7C6F942464B46FFF7C2F9CF
:1013B00005E0FFF731FA42464B46FFF72DFA0446A7
:1013C0000E460022284BFFF72DFC03D84FF0FF30CC
:1013D000014607E00022254B20463146FFF703F97E
:1013E000FFF707FC102409E0002C0ADB0A22002387
:1013F000FEF770FF039B30321A55641E50EA01025B
:10140000F2D1641C039AC4F111031444119A012A05
:1014100003D0012208430DD10AE0084304D0002084
:101420004FF0110B119072E7A3EB0B056D1E0DE051
:101430005B4504DD4FF0000205F1010504E003DA2D
:101440004FF00002A5F10105002AECD00298119995
:10145000C0E90231C0E9004579E70000000014400E
:101460000000F03F300000000000F0430000E03FCB
:1014700003490868884201D0012070470020FCE73A
:10148000D80000202DE9FF4F95B09B4689460646BF
:1014900000250FE2252877D100242746F84A0121AC
:1014A000059400E0044316F8013F203B01FA03F0E5
:1014B0001042F7D130782A2811D06FF02F033078FE
:1014C000A0F13002092A16D8059A44F0020402EB72
:1014D000820203EB42021044761C0590EFE759F8B4
:1014E000042B0592002A03DA504244F4005405907C
:1014F00044F00204761C30782E2816D116F8010F1D
:1015000044F004042A280DD06FF02F023078A0F1A7
:101510003003092B09D807EB870302EB4303C718F5
:10152000761CF3E759F8047B761C30786C280FD0D2
:1015300006DC4C2817D068280DD06A2814D104E0A6
:10154000742810D07A280FD10DE044F400140AE07A
:1015500044F4801401E044F440147278824202D1D1
:1015600004F58014761C761C307866280BD013DCCA
:10157000582877D009DC002875D04528F6D04628B1
:10158000F4D047281AD19DE118E0632835D06428AB
:1015900079D0652812D195E1702873D008DC6728CE
:1015A000F1D069286FD06E280DD06F2806D1B5E034
:1015B00073282CD0752875D0782874D05A4617997E
:1015C00090476D1C75E1C4F30250022809D003282E
:1015D0000DD0D9F8001004280DD00D6009F10409D0
:1015E00067E1D9F80010EA17C1E90052F6E7D9F827
:1015F00000100D80F2E70D70F0E719F8041B8DF86C
:10160000001000208DF80100EA46012003E059F89F
:1016100004AB4FF0FF3061074FF0000102D40DE042
:1016200008F101018846B9420FDA8045F8DB1AF863
:1016300008100029F4D108E008F101018846814230
:10164000FADB1AF808100029F6D105985B46A0EBE2
:10165000080721463846179A00F094FA284400EB10
:10166000080507E04DE029E10DE01AF8010B5A46A4
:1016700017999047B8F10108F7D25B4621463846E2
:10168000179A13E142E00A220092C4F302524FF08B
:10169000000A022A08D059F804CB032A4FEAEC7159
:1016A0000AD00DE029E02AE009F1070121F0070244
:1016B000F2E802C1914609E00FFA8CFC4FEAEC71A6
:1016C000042A03D14FFA8CFC4FEAEC71002907DAA7
:1016D0000A460021DCF1000C61EB02012D2202E040
:1016E000220504D52B228DF80420012203E0E20715
:1016F00001D02022F7E7904659E00A2102E01022AB
:101700000DE010214FF0000A00910BE010224FF085
:10171000000A44F004040827009203E008224FF076
:10172000000A0092C4F30252022A05D059F804CBF1
:101730000021032A08D009E009F1070121F007027E
:10174000F2E802C1914605E01FFA8CFC042A01D19F
:101750000CF0FF0C4FF00008220728D5702806D0A7
:10176000009B83F0100353EA0A0305D00EE04022E9
:101770008DF80420012208E05CEA010206D0302244
:101780008DF804208DF8050002229046009B83F01E
:10179000080353EA0A030AD15CEA010201D1620795
:1017A00005D530228DF804204FF001087F1E5828FF
:1017B00004D034A003900EA802900DE036A0F9E703
:1017C00053466046009AFEF785FD84460398825C86
:1017D0000298401E029002705CEA0100F0D102986B
:1017E00006A9081A00F1200A600702D524F4803403
:1017F00000E00127574502DDA7EB0A0000E00020CA
:1018000000EB0A01009005984144401A0590E0035E
:1018100006D45B462146179A059800F0B3F90544B3
:10182000002706E001A85A46C05D179990476D1C35
:101830007F1C4745F6DBE0030CD55B462146179A33
:10184000059800F09FF9054404E030205A461799A6
:1018500090476D1C0099481E00900029F5DC08E0B7
:10186000029802995A460078491C029117999047AC
:101870006D1CBAF10001AAF1010AF1DC65E100007A
:101880000928010030313233343536373839616256
:10189000636465660000000030313233343536371A
:1018A00038394142434445460000000000F058F9F1
:1018B0000544761C307800287FF4ECAD19B028463A
:1018C000BDE8F08F620700D4062709F1070222F075
:1018D000070CFCE80223E14603F000485FEA080C2D
:1018E00002D00FF2702C0DE05FEA045C02D50FF21B
:1018F000682C07E05FEAC47C02D00FF2602C01E0A4
:10190000AFF2700C4FF0FF3823F00043CDF850C019
:1019100065280CD006DC452809D046281DD047286C
:101920003DD13DE0662818D067287ED138E00021FF
:10193000112F01DB112000E0781CCDE9000106A980
:101940000EA8FFF7D3FCDDE90F010E9A03910021E9
:10195000009207F1010A04914DE04FF0004000971A
:10196000CDE9011006A90EA8FFF7C0FCDDE90F02C2
:1019700003920E9B11990022DDF80CA000930492B3
:1019800011B9791C00EB010AB7EB0A0004D4C0F1CD
:10199000FF3007F1010A0490AAEB0700019044E030
:1019A000012F00DA01270021112F01DD112000E0B5
:1019B0003846CDE9000106A90EA8FFF797FCDDE93E
:1019C0000F010E9A0391002104910092BA4621075B
:1019D0000CD40399514500DA8A46BAF1010F05DDAE
:1019E000009AAAF10101515C302908D0B84202DA0C
:1019F00010F1040F06DA0121CDE9011015E0AAF17A
:101A00000101E9E7002805DC049901440491AAEBEF
:101A1000000102E0411C514500DD8A460499401A4C
:101A2000401C01904FF000400290200704D4019820
:101A3000504501DBCDF8048000208DF84F0002985E
:101A40000DF14F07B0F1004F25D02B200E900298DA
:101A50004FF0020800280CDA404202902D200E9030
:101A600007E00A210298FEF7E9FF3031029007F8FB
:101A7000011DB8F10001A8F10108F2DC029800286C
:101A8000EFD1791E0E980870307800F0200040F0F9
:101A9000450007F8020D12A8C01B00F107081498B2
:101AA000007800B1012000EB0A01019801EBE07120
:101AB00005984144401A401E0590E00306D45B4659
:101AC0002146179A059800F05DF8054414980078AF
:101AD00018B15A46179990476D1CE00324D55B4610
:101AE0002146179A059800F04DF805441CE004982B
:101AF000002807DBDDE90301884203DD0098405C34
:101B0000179901E0179930205A469047049805F13B
:101B10000105401C04900198401E019004D12E2024
:101B20005A46179990476D1CBAF10001AAF1010AB3
:101B3000DDDC05E017F8010B5A46179990476D1C3C
:101B4000B8F10001A8F10108F4DC5B462146179AC0
:101B50000598ABE62D0000002B00000020000000DF
:101B60002DE9F041044600251E461746880404D49A
:101B700005E039462020B0476D1C641EF9D5284683
:101B8000BDE8F0812DE9F041044600251E4690464F
:101B9000C80301D5302700E02027880404D505E0DC
:101BA00041463846B0476D1C641EF9D52846BDE84D
:101BB000F08170B50446A06A0078232809D1A16A93
:101BC000E069884205D9D4E90A010844E1698842FC
:101BD00006D2FEF707FB054600BF002DFDD100E051
:101BE00000BF70BD2DE9FC5F04468B4615461E46BE
:101BF000DDE90C9ADDE90E7804F114004060006024
:101C000000BF1C346560A660C4F80C90C4F810A036
:101C10002321D4E9030211F054FBD4E9033C6344CB
:101C20001A1F144BD4E9010111F05AF92060A7766C
:101C300067760020E061C4F82080C4F824806061E9
:101C400020766065A0651C3C009023460A4A214628
:101C5000019004F1440012F06BF900BF07480068DE
:101C600018B1204605490968884700BF0020BDE833
:101C7000FC9F0000F13A0108893D0108EC000020BA
:101C80002DE9F04704460E4617469846DDF82090A9
:101C900084F80990607A20F001006072E6612762A2
:101CA0000020A062C4F82480002506E004F114019D
:101CB00001EBC50011F0D2F96D1C012DF6DBBDE87A
:101CC000F08710B50246002001460EE002F1140331
:101CD00003EBC100D0E900436360D0E90034236026
:101CE0004060006000BF481C01460129EEDB10BDCA
:101CF0000A68531C0B60107070478046444641E0F0
:101D000020460168814201D1012100E0002131B16A
:101D100011F0CEFF064612F009F811F0BDFCFEF7F7
:101D200061FA814620680546284611F0CDF9A56084
:101D30004846FEF75BFA2846D5E902219047FEF7B0
:101D400051FA81460020A0604846FEF74FFA274628
:101D500011F01CF811E007F10C0011F0D3FD06465C
:101D6000B01C20B907F10C0011F054FD05E00EB9CC
:101D7000002603E04FF0FF3600E0ECE700BF11F073
:101D800015F800BFBCE7816841F00801816000BF21
:101D9000816801F008010029FAD1816841F004014D
:101DA000816000BF816801F004010029FAD1704709
:101DB00030B5012902D002291AD10CE0C36A23F4FC
:101DC0007003C362C36A541E4FF4700505EA0454DD
:101DD0002343C3620DE0836B23F440138363836B5F
:101DE000541E4FF4401505EA04542343836300E076
:101DF00000BF00BF30BD21B1826842F40062826042
:101E000003E0826822F4006282607047816841F4D6
:101E1000807181607047816801F0010119B98168A2
:101E200041F001018160704772B101F001031BB103
:101E3000836843F48013836001F0020393B18368E5
:101E400043F4004383600DE001F001031BB183689C
:101E500023F48013836001F002031BB1836823F431
:101E6000004383607047012902D0022910D107E0A6
:101E7000836823F46023836083681343836008E0EE
:101E8000836823F4E043836083681343836000E046
:101E900000BF00BF704700000549096821F47021A8
:101EA000034A116011460968014311607047000040
:101EB00004240140F0B51D4606290CD2436B01EB0A
:101EC00081071F26BE40B34301EB810602FA06F6E6
:101ED0003343436322E00C290ED2036B8E1F06EBC3
:101EE00086071F26BE40B3438E1F06EB860602FA06
:101EF00006F63343036311E010290FD2C36AA1F140
:101F00000C0606EB86071F26BE40B343A1F10C0664
:101F100006EB860602FA06F63343C3620A2A0CD29F
:101F2000046902EB42070726BE40B44302EB4206B7
:101F300005FA06F63443046111E0122A0FD2C46890
:101F4000A2F10A0606EB46070726BE40B443A2F1FB
:101F50000A0606EB460605FA06F63443C460F0BDF1
:101F600001F001021AB1826842F48002826001F03D
:101F700002021AB1826842F4001282607047AAB16C
:101F800001F480731BB1436843F48073436001F430
:101F900080631BB1436843F48063436001F0020334
:101FA000CBB1836843F00203836014E001F48073D3
:101FB0001BB1436823F48073436001F480631BB159
:101FC000436823F48063436001F002031BB183681C
:101FD00023F002038360704770B5044620460BF07F
:101FE000F9FCC5B2052D02D100F056FC70BD00F021
:101FF00019F9FBE770B5044694F82000C0F34000DF
:1020000020B994F8200000F0010070B194F820008D
:10201000C0F34000B0B994F8200000F0010088B18E
:1020200094F82000C0F3800060B1A56826682146BE
:1020300016480AF07BFD20460BF048F80DB13046FB
:10204000A8471FE0E08B404200B2608394F8200074
:1020500000F00100B0B194F82010C1F3800119B96B
:10206000A18B494209B261831034217C8908C9439C
:10207000227C61F3820222742068616821606060C2
:10208000103C00BF0248007870BD0000FC30032007
:10209000580200202DE9F04107462F480AF0A0FC25
:1020A000044608E0206A20F00800206221462A4801
:1020B0000AF09BFC0446002CF4D1284800680FF07D
:1020C000CDF8064624480AF08BFC04463CE000208C
:1020D0002349087094F82000C0F3C00038BB206A80
:1020E00020F0080008302062608B304400B260832A
:1020F000B4F91A0000281ADBB4F91A00218B8842BF
:1021000002DD208B00B260832046E16888470546E7
:10211000606818B12946D4E900029047B4F91A0062
:10212000218B884202DB2046FFF764FF00BF0C488A
:10213000007820B108480AF053FC044604E0214628
:1021400005480AF052FC0446002CC0D10FF094F868
:1021500002490860BDE8F081FC30032054020020F1
:102160005802002030B503460BB9002030BD012BCA
:1021700001D1CC20FAE7C1EBC105581EB5FBF0F048
:10218000C4B20248005D5043000AEFE790790108AD
:1021900070B504460D46142011F0A3FC70BD10B5B7
:1021A00010F014FB10F008FB10BD000001460020E9
:1021B0000B2909DB2A2907DCA1F10B02084B03EBF1
:1021C0008202B2F8400C09E0012907DB0A2905DC8C
:1021D0004A1E034B03EB8202B2F8040C7047000066
:1021E000006000400B2809DB2A2807DCA0F10B0265
:1021F000084B03EB8202A2F8401C09E0012807DB30
:102200000A2805DC421E034B03EB8202A2F8041CE1
:102210007047000000600040024608881388C01A1A
:10222000704700002DE9FC472A4800680DF05BFA72
:1022300000EB80004FF4FA6101EB4009264800688A
:102240000DF051FA48441FFA80F8244800680DF058
:102250004AFA401CC5B2224800680DF044FA401CFE
:10226000C4B2022D0ED14046FEF7DEFD50B11D2C4A
:1022700016DD1D24601E81B20022194800680DF091
:10228000EDFA0DE0681E1749085CA04208DA681EE6
:102290000C5C601E81B20022114800680DF0DEFA6D
:1022A000114800680DF01FFAC6B2104800680DF022
:1022B0001AFAC7B20020334622462946CDE90070FB
:1022C000404615F06BF80A48006813F011F9012038
:1022D000BDE8FC87AC030020B0030020B40300205D
:1022E000B803002040770108BC030020C003002091
:1022F000C403002010B50446204613F02EF810BD8C
:102300002DE9F0410446201D0AF06AFB064608E06C
:102310003146201D0AF069FB07463046FFF7F0FF03
:102320003E46002EF4D10021204602F0EDFAE06A8C
:1023300010B1204608F0EBFB002009F011FC054627
:102340000CE0286AA04202D0686AA04202D1284666
:1023500009F027FC284609F003FC0546002DF0D1C2
:1023600020460BF05FFB8046214608F104000AF08E
:10237000DDFB002211462046A3699847206A10B170
:10238000206A0AF0A3FE20460AF0A0FEBDE8F08114
:1023900010B501EB8102930000F10802D25842F01F
:1023A000010301EB8102940000F10802135110BDFA
:1023B00010B501EB8102930000F10802D25842F0FF
:1023C000200301EB8102940000F10802135110BDBB
:1023D00010B501EB8102930000F10802D25822F0FF
:1023E000010301EB8102940000F108021351002364
:1023F00001EB8102940000F10802135101EB81020C
:10240000940000F10C02135101EB8102940000F1E1
:102410001002135101EB8102940000F114021351D8
:1024200042688C000F23A3401A434260044A904242
:1024300004D1052902D10022024B1A6010BD000010
:1024400000040240000702400FB430B501EB8103E5
:102450009D0000F11003059C5C5101EB81039D0080
:1024600000F11403079C5C51099B9CB201EB8103B2
:102470009D0000F10C035C5101EB81039C0000F115
:1024800008031A5922F47C52089C069B23430A9C99
:1024900023431A4301EB81039C0000F108031A5106
:1024A0009DF82C30012B0ED101EB81039C0000F133
:1024B00008031B5943F0400401EB81039D0000F128
:1024C00008035C510DE001EB81039C0000F108035F
:1024D0001B5923F0400401EB81039D0000F1080328
:1024E0005C519DF82D30012B0ED101EB81039C0036
:1024F00000F108031B5943F0800401EB81039D00A8
:1025000000F108035C510DE001EB81039C0000F138
:1025100008031B5923F0800401EB81039D0000F1A7
:1025200008035C519DF82E3073B901EB81039C00C8
:1025300000F108031B5923F0100401EB81039D00F7
:1025400000F108035C510DE001EB81039C0000F1F8
:1025500008031B5943F0100401EB81039D0000F1B7
:1025600008035C5130BC5DF814FB2DE9F04387B0E3
:1025700004460F46002120460DF0BBF805462046D4
:102580000BF02EFA064603A82169016061694160DB
:1025900000BFBDF80C00A18E401A00B2ADF80C00CF
:1025A000BDF81000A18E084400B2ADF81000BDF8CF
:1025B0000E00A18E401A00B2ADF80E00304606EBB8
:1025C000D0714A10618A114409B2ADF812103A462E
:1025D00003A905A802F08AFA8046BDF80C00A18E76
:1025E000084400B2ADF80C00BDF81000A18E401AEE
:1025F00000B2ADF81000BDF80E00A18E084400B284
:10260000ADF80E00BDF81210E888084400B2ADF82D
:102610001200B8F1000F09D020460BF0EFF9814607
:102620004B462A4605A903A805F043F9BDF80C005E
:10263000A18E401A00B2ADF80C00BDF81000A18EBA
:10264000084400B2ADF81000E08AA18E084400B240
:10265000ADF81200304606EBD0714A10618A114481
:1026600009B2ADF80E1006F0010028B9BDF80E0051
:10267000401C00B2ADF80E003A4603A905A802F0CE
:1026800035FA8046BDF80C00A18E084400B2ADF8C2
:102690000C00BDF81000A18E401A00B2ADF8100079
:1026A000BDF81200A18E401A00B2ADF81200BDF8BC
:1026B0000E10E888081A00B2ADF80E00B8F1000F4D
:1026C0001CD068880290A8880190BDF8040068803A
:1026D000A81CBDF80810A98020460BF08FF9814690
:1026E0004B462A4605A903A805F0E3F8BDF8080003
:1026F0006880A81CBDF80410A98000BF07B0BDE821
:10270000F08370B504460D460026207800F00100E5
:1027100068B92068B5EB500F09D82946204600F06B
:1027200021F8206820F00100401C2060261D304662
:1027300070BD000010B50146002011B9084A1068AC
:102740000CE00A1D0B6802EB5300031D044C2468C7
:1027500004F50044A34200D3002000BF10BD0000D8
:102760001003002030B501F0030212B121F0030183
:10277000091D0A1D0368B2EB530F01D1026851080D
:102780000268B1EB520F0ED0031D5A18146824F0E2
:10279000010414600468C1EB5404241F156864F339
:1027A0005F05156000BF026861F35F02026030BD23
:1027B0002DE9F04706460F46904699463D460AE009
:1027C000344605E029462046089A0FF0B3FF641C02
:1027D0004445F7DD6D1C4D45F2DDBDE8F0872DE980
:1027E000F84F06460F4690469946DDF828A03D462C
:1027F0000FE034460AE0BAF800000246294600908D
:1028000020460FF097FF0AF1020A641C4445F2DDEE
:102810006D1C4D45EDDD07F06FFEBDE8F88F2DE92D
:10282000F84F06460F4690469946DDF828A03D46EB
:102830000FE034460AE0BAF800000246294600904C
:1028400020460FF077FF0AF1020A641C4445F2DDCE
:102850006D1C4D45EDDDBDE8F88F000038B5044630
:10286000002000900023012269460A48006810F009
:1028700081FD50B901202072FEF74AFA00B2208093
:10288000FEF756FA00B2608001E0002020720020BE
:1028900038BD0000F003002010B513F0BFFD12F0AA
:1028A00067FD002010BD000010B52C4B1B68834352
:1028B0002A4C2360231D1B688343241D2360231D92
:1028C0001B688343241D2360231D1B688343241D31
:1028D000236011B101290ED105E0204B1B68034391
:1028E0001E4C236008E01D4B1B1D1B6803431B4C43
:1028F000241D236000E000BF00BF22B1012A0FD0D9
:10290000022A27D119E0154B08331B680343134CE7
:1029100008342360231D1B688343241D23601AE0B1
:102920000E4B08331B6883430C4C08342360231D73
:102930001B680343241D23600DE0084B08331B680C
:102940000343064C08342360231D1B680343241DE6
:10295000236000E000BF00BF10BD00000004014084
:10296000014908607047000014040140014607480F
:10297000006800EA010205481438006800EA010313
:1029800012B10BB1012070470020FCE71404014094
:1029900010B5002821D0114B0022001F196803E058
:1029A000814203D80A4649680029F9D152B1136817
:1029B000841A9C4204D1006818441060104602E05A
:1029C000506000E0186039B102680B1A934203D1DD
:1029D0000B681A4402604968416010BD440400203D
:1029E00001480068704700001800002010B540F250
:1029F000026010F07DF84FF4C06010F079F8802389
:102A000003221821014800F067F810BD00080140BA
:102A100010B540F2036010F06BF84FF4C06010F096
:102A200067F8082303221821034800F055F8012114
:102A3000024800F0E1F810BD000C0140000318004E
:102A400010B500228B071C0F0F2303FA04F2042990
:102A50000EDA204B9B6893431E4CA36023469B6871
:102A60008C07240F00FA04F423431A4CA3602FE0D0
:102A700008290EDA174BDB689343164CE3602346B4
:102A8000DB688C07240F00FA04F42343114CE36045
:102A90001EE00C290EDA0F4B1B6993430D4C23618A
:102AA00023461B698C07240F00FA04F42343094CC6
:102AB00023610DE0074B5B699343064C636123463A
:102AC0005B698C07240F00FA04F42343014C636113
:102AD00010BD000000000140F0B504461646002578
:102AE000002201F00F0501F0100707B13543002067
:102AF00018E0012787401F4097B122684FEA800CF9
:102B00000F2707FA0CF7BA43870005FA07F73A438D
:102B1000282901D1636102E0482900D123612260A4
:102B2000471CB8B20828E4D308201CE001278740DE
:102B30001F40B7B16268A0F108074FEA870C0F2762
:102B400007FA0CF7BA43A0F10807BF0005FA07F728
:102B50003A43282901D1636102E0482900D1236169
:102B60006260471CB8B21028E0D3F0BD02469068FE
:102B7000084008B1012070470020FCE710B503466B
:102B80000020DAB1022B04D11A4CE06B0843E06359
:102B90002FE0032B04D1174C206C0843206428E05D
:102BA000042B04D1134C606C0843606421E0052BB6
:102BB0001FD1104CA06C0843A0641AE0022B04D172
:102BC0000C4CE06B8843E06313E0032B04D1094C09
:102BD000206C884320640CE0042B04D1054C606C0D
:102BE0008843606405E0052B03D1024CA06C884348
:102BF000A06410BD00000140F0B50A460023002487
:102C00000021002500F00046B6F1004F02D11D4E14
:102C1000F16901E01B4E7168C0F3034583B200F413
:102C20004016B6F5401F08D121F07061154E766848
:102C300026F07066134F7E6012E000F48016B6F541
:102C4000801F06D1032606FA05F4A14341F0706106
:102C500006E0460D360103FA06F6B14341F0706115
:102C600022B1460D360103FA06F6314300F0004664
:102C7000B6F1004F02D1034EF16101E0014E7160E7
:102C8000F0BD0000000001400146302905DB392974
:102C900003DCA1F13000C0B27047612902DBA1F171
:102CA0002000C1B2A1F14100062810D2DFE800F0F7
:102CB000030507090B0D0A20EEE70B20ECE70C20BB
:102CC000EAE70D20E8E70E20E6E70F20E4E7002022
:102CD000E2E72DE9F04105460F4690461E4612F008
:102CE000FBFE6906080EFEF711FA12F0B3F938463A
:102CF000FEF70CFA12F0AEF914F0DEFC12F0ECFE66
:102D0000012101EB4501C8B2FEF700FA12F0A2F969
:102D1000002405E00120FEF7C9F93055601CC4B25B
:102D2000A8F10100A042F5DC0020FEF7BFF9305504
:102D300014F0C2FCBDE8F08170B504460D46E06BAE
:102D4000296830F821102182E06B296800EB8100AE
:102D500041886182B4F91410B4F9100081420DD198
:102D6000B4F91610B4F91200814207D1287A01286B
:102D700004D104F10C0000F0D5FA03E004F10C00DA
:102D800000F0CAFB218AA182618AE18270BD000045
:102D90002DE9F05F0446656903E028460AF042FE2B
:102DA000054628460AF007FE08B1002DF5D10DB9F9
:102DB000BDE8F09F28460AF0F8FD00B9F8E7207F4B
:102DC00000F0010030BB218AA089084401B22182B1
:102DD000618AE089084401B26182B4F910000028D8
:102DE00002DDB4F9100002E0B4F9100040420A28F4
:102DF0000BDAB4F91200002802DDB4F9120002E087
:102E0000B4F9120040420A2804DB207F20F00100C0
:102E1000401C2077207F00F00100002844D0A089CA
:102E200010B9E08900283FD028460AF04FFE064638
:102E300028460AF057FE07460CF016F98046B5F909
:102E40001090B5F912A0E089384402B2A08930444C
:102E500001B228460AF049FFB5F91000484503D1F0
:102E6000B5F91200504515D0207F00F0010058B18F
:102E70000E48AB690C2102682846984794F8280050
:102E8000C0F3400000B193E7207F20F00200801CD7
:102E9000207708E00CF0E8F88346ABEB080188B235
:102EA0000CF070FA00BF00BF00BF81E720010020D6
:102EB0002DE9F0410446207FC0F3400008B9BDE889
:102EC000F081A56903E028460AF0ACFD05462846D6
:102ED0000AF071FD08B1002DF5D105B9EFE72846DC
:102EE0000AF06FFD50B9207F20F0020121772C48B5
:102EF000AB690D21026828469847E0E7B4F90C0059
:102F000000EB80000001642190FBF1F001B2A1818F
:102F1000B4F90E0000EB80000001642190FBF1F099
:102F200001B2E181A08908B9E08968B328460AF0B6
:102F3000CDFDA189084406B228460AF0D3FD01461A
:102F4000E089084407B23A46314628460AF0CDFEE9
:102F500028460AF0BBFDB04201D1A08998B92846A5
:102F60000AF0C0FDB84201D1E08960B9207F20F0AD
:102F7000020121770021A181E1810948AB690D217E
:102F800002682846984709E0207F20F00201217757
:102F90000348AB690D2102682846984700BF8EE7B9
:102FA00020010020F8B504460D46E06B00B9F8BDDD
:102FB000287A002843D1E06B07F06EFD00B3B5F925
:102FC000000000280CDA002604E01421E06B07F072
:102FD000CDFD761CB5F900004042B042F5DC0EE0B4
:102FE000B5F9000000280ADD002604E01321E06B9B
:102FF00007F0BCFD761CB5F90000B042F6DC1EE01F
:10300000B5F9000000280BDA002603E0E06B07F0BA
:1030100001FD761CB5F900004042B042F6DC0DE03F
:10302000B5F90000002809DD002603E0E06B07F099
:1030300078FC761CB5F90000B042F7DC00BF287AB6
:10304000012805D1207C18B90EF016F9E062A5E040
:10305000287A012844D1207C012841D194F83400F9
:1030600000F001000028F2D1E06A0EF0F7F8B0F5A8
:10307000C87FECD9E06B07F018FD064600200090F1
:1030800026B16A4611213046B36998479DF8000081
:10309000B8B1E06B90F858004008C043E16B91F87C
:1030A000581060F34101E06B80F8581026B10022FF
:1030B0000E213046B369984756B130460AF01EFDDE
:1030C00006E02EB13848B3690A21026830469847B5
:1030D00094F8340020F00100401C84F834005DE0D6
:1030E000287A00285AD1207C012857D1E06B07F0BC
:1030F000DCFC06460020009026B16A4611213046CD
:10310000B36998479DF8000020B90A21E06B07F0E9
:103110002DFD34E0E06B90F85800C0F3400048B15A
:1031200094F8340000F0010048BB0A21E06B07F07E
:103130001DFD24E09DF8000008B3E06B90F85800F6
:10314000C0F34000D8B994F8340000F00100B0B9E1
:10315000E06B90F858004008C043E16B91F85810BC
:1031600060F34101E06B80F8581026B100220E2177
:103170003046B369984716B130460AF0BFFC94F860
:103180003400C0F3400000B111E70021E16294F87F
:10319000340020F0010184F8341000BF297A217432
:1031A0002968616100BF02E72001002070B5044674
:1031B0000D46E06B00B970BD287A012805D1207C4E
:1031C00018B90EF059F8E06275E0287A012824D188
:1031D000207C012821D128680A286CD194F8340079
:1031E00000F00100002866D1E06A0EF037F8B0F573
:1031F000C87F60D9E06B07F058FC064666B13148DD
:10320000B3690A2102683046984794F8340020F0E8
:103210000100401C84F834004DE0287A00284AD18F
:10322000207C012847D1606928602868092802D0DD
:1032300028680B2812D1E06B07F02EFC70B100213A
:10324000E06B07F0A2FCE06B07F02FFC064626B10E
:1032500000220E213046B369984700BF286809282C
:1032600003D1E06B07F05DFB17E028680B2803D162
:10327000E06B07F0CFFB10E028680A2809D194F82A
:10328000340000F0010040B92968E06B07F06EFCE3
:1032900003E02968E06B07F069FC94F83400C0F3A0
:1032A000400000B187E70021E16294F8340020F08B
:1032B000010184F83410297A21742968616100BF02
:1032C00079E700002001002070B504460D46E06B50
:1032D00090B1B4F91400B5F90010884205D1B4F9E1
:1032E0001600B5F90210884206D0B5F90220B5F9EA
:1032F0000010E06B0AF0F9FC29882182698861825C
:10330000207B012804D104F10C0000F00BF803E04D
:1033100004F10C0000F000F9218AA182618AE182A7
:1033200070BD00002DE9F04104466569207FC0F3BF
:10333000800008B1BDE8F081606988B909F02CFB14
:1033400006463146204600F0F3F9054615BB0CF061
:10335000D7FB06463146204600F0EAF9054619E05B
:10336000207FC0F34000A8B9102160690AF032FC48
:1033700080B909F011FB06463146204600F0D8F925
:1033800005463DB90CF0BCFB06463146204600F030
:10339000CFF905466069A84252D0A1882181E18811
:1033A0006181606958B160695A4983690A68082176
:1033B000984794F82800C0F3400000B1BAE7002D08
:1033C0003ED00DF059FF206294F8280020F0010053
:1033D00084F82800207F20F001012177207F20F051
:1033E000020121770021218261822E46002709E017
:1033F00096F83000C0F3401000B1374630460AF06E
:1034000011FB0646002EF3D16FB138460AF00AFBD5
:1034100080463A4608F10401084609F0C3FA3846E6
:103420000AF06CFB00BF3B48AB69062102682846E6
:10343000984794F82800C0F3400000B17AE700BF35
:1034400065616169A161A1882089081A01B2A18121
:10345000E1886089081A01B2E1816069002856D0CC
:1034600060692C4983690A680721984794F8280005
:10347000C0F3400000B15DE72046FFF789FC94F8F7
:103480002800C0F3400000B154E7207FC0F34000A3
:1034900000BB94F8280000F00100D8B9206A0DF0B4
:1034A000DDFEB0F5C87F15D91A48AB690A2102685C
:1034B0002846984794F82800C0F3400000B139E747
:1034C00094F8280020F00100401C84F828000DF03A
:1034D000D3FE6062207FC0F34000C0B994F828009A
:1034E00000F0010098B1606A0DF0B8FE64280ED9B2
:1034F0000848AB690B2102682846984794F82800D1
:10350000C0F3400000B115E70DF0B6FE606200BFE9
:1035100010E70000200100202DE9F0410446207F43
:10352000C0F3800048B100216161A16100202062E8
:103530006062207F20F0040121776069002867D055
:10354000102160690AF046FBA8B12046616900F0CD
:10355000EFF805466069A84206D16069354983697C
:103560000A680921984705E06069324983690A6859
:103570000821984705E060692E4983690A68092196
:10358000984760690AF029FA0746384607F084FA36
:1035900040B10021384607F0F8FA606900220E2198
:1035A00083699847202160690AF014FB18BB6069A1
:1035B0000AF013FA0546666910E030460AF032FA5E
:1035C000064606B90CE0202130460AF003FB08B19C
:1035D000002605E030460AF000FA0546002DECD042
:1035E00000BF3DB136B1284607F04DFA10B1304664
:1035F00007F0D0F900BF94F82800C0F3400008B1EC
:10360000BDE8F0810021616100202062606200BF9E
:10361000A06968B194F82800C0F3400040B9204682
:10362000FFF746FC94F82800C0F3400000B1E7E73C
:1036300000BFE5E72001002090F83410C1F34001FD
:10364000F1B10022026242622821095C21F00102EC
:1036500028210A54095C21F0020228210A5490F81A
:10366000341021F0010280F834200022C26202638B
:103670008283C28390F8341021F0020280F8342053
:1036800070470000FEB50646002008F069FA0446BF
:1036900045E0264804602046FFF7CEFF94F834004A
:1036A000C0F38000002836D100BF6946204608F0EC
:1036B00065FA05462046FFF7BFFF9DF80800207316
:1036C000207B012802D10DF0D7FDA06320780128CE
:1036D00004D169462046FFF7F7FD16E0207802285E
:1036E00004D169462046FFF761FD0EE020780428EA
:1036F00004D169462046FFF755FC06E020780328F0
:1037000003D169462046FFF717FB2046FFF794FFD9
:10371000002DCAD100BF204608F022FA0446002C32
:10372000B7D1002001490860FEBD00002001002043
:103730002DE9F04107460C460025391D04F1100023
:1037400001F04FFA00282BD0201D09F049F98046DE
:103750000BE041463846FFF7EBFF054605B107E0B1
:103760004146201D09F041F98046B8F1000FF0D123
:1037700000BFA5B920460AF006F980B1264608E048
:1037800030460AF035F900B105E030460AF04AF952
:103790000646002EF4D100BF06B9254600BF00BF83
:1037A0002846BDE8F081000002460020002107E025
:1037B00006A35B5C934201D1012005E04B1CD9B20A
:1037C00002A35B5C002BF3D100BF7047202C2E3B83
:1037D0003A2D5F002DE9F04F85B004468946154625
:1037E0001E46E88E401E07B24FEA670807F0010A3E
:1037F000FF2E02D13820405D03E03820405D704349
:10380000001283462088ADF80C00A088ADF81000A7
:103810006088A0EB0800A0EB0A0000B2ADF80E0033
:10382000E088404400B2ADF81200BDF90C00BDF9CB
:103830001010884202DABDF90C0001E0BDF9100059
:10384000ADF80400BDF90C00BDF91010884202DD8E
:10385000BDF90C0001E0BDF91000ADF80800BDF99C
:103860000E00BDF91210884202DABDF90E0001E027
:10387000BDF91200ADF80600BDF90E00BDF9121039
:10388000884202DDBDF90E0001E0BDF91200ADF87D
:103890000A00A88E5B4602464946009001A8DFF860
:1038A00010C0DCF800C0E04705B0BDE8F08F0000B4
:1038B000607901081FB59AB01D98FF2803D11C98A4
:1038C00090F8380005E01C9890F838001D9948439E
:1038D000001218901A9881880088081A00B2ADF872
:1038E0005C001A98C1884088081A00B2ADF85E00E2
:1038F0001A98007EE0B11A98B0F90210B0F90600EB
:1039000081420ADABDF85E00404200B2ADF85800CC
:10391000BDF85C00ADF85A0026E0BDF85E00ADF8D9
:103920005800BDF85C00404200B2ADF85A001BE000
:103930001A98B0F90010B0F9040081420ADABDF813
:103940005E00ADF85800BDF85C00404200B2ADF832
:103950005A0009E0BDF85E00404200B2ADF85800E0
:10396000BDF85C00ADF85A00BDF85800000100B287
:10397000ADF85800BDF85A00000100B2ADF85A0089
:103980001C98B0F9360015901598400019901998B8
:1039900080000A900EF0D2FD14900020139015982C
:1039A000D8B30020039016AA03A904A800F0C0FE13
:1039B0001598404302900020139026E0BDF818208F
:1039C000DDE9131020F82120BDF81A20DDE91310DD
:1039D00000EB81004280BDF918004043BDF91A2078
:1039E00002FB02000190DDE90101884206D3139831
:1039F00015901598401E00B215900CE004A800F038
:103A000001FF1398401C00B213901998800001B276
:103A100013988142D2DC00BF05E0FFE70021149833
:103A200001801498418015981290159808B90120CA
:103A3000129000201190139084E11598401E149963
:103A400031F920000A9000EBD0704210084613991B
:103A500030F82100801A02B2149820F8212015981D
:103A6000401E149901EB8000B0F902000A9000EBAF
:103A7000D07042100846139900EB81004088801AEC
:103A800002B2149800EB81004280139800287CD089
:103A90001A98007E002879D01398401E149931F9A5
:103AA00020200846139930F921008242EFD0DDE949
:103AB000131000EB810042881199149800EB8100EB
:103AC0004088101A00B20A901A98B0F91200002823
:103AD00047DA189801901C98808EADF800001A986B
:103AE00042881199149800EB8100408811180A98B7
:103AF0000844401C00B209901A9802881199149841
:103B000030F821001044401E00B208901B9BDDE9F4
:103B1000091203F0F9FB189801901C98808EADF8FB
:103B200000001A98C2881199149800EB810040880F
:103B300011180A980844401C00B209901A9882880B
:103B40001199149830F821001044401C00B20890DC
:103B50000A98404202B21B9BDDE9080103F0D4FB46
:103B600041E0189801901C98808EADF800001A98DA
:103B700042881199149800EB81004088104400B2EB
:103B800009901A980288149801E0BCE02EE030F801
:103B900021001044401E00B208901B9BDDE9091271
:103BA00003F0B2FB189801901C98808EADF80000CD
:103BB0001A98C2881199149800EB8100408810442B
:103BC00000B209901A988288149830F821001044A5
:103BD000401C00B208900A98404202B21B9BDDE9EB
:103BE000080103F091FB13981190A7E01398401E71
:103BF000149901EB8000B0F902200846139900EBFC
:103C00008100B0F9020082427DD0DDE9131030F866
:103C10002120119930F82100101A00B20A901A9848
:103C2000B0F90E00002845DA189801901C98808E93
:103C3000ADF800001A9842881199149800EB8100A1
:103C400040881044401E00B209901A9802881498C7
:103C500030F8210011180A980844401C00B208905E
:103C60001B9BDDE9091203F01BFB189801901C98BF
:103C7000808EADF800001A98C2881199149800EB54
:103C8000810040881044401C00B209901A98828834
:103C9000149830F8210011180A980844401C00B20A
:103CA00008900A98404202B21B9BDDE9080103F02C
:103CB000F7FA40E0189801901C98808EADF800004B
:103CC0001A9842881199149800EB8100408810449A
:103CD000401E00B209901A980288149830F821000A
:103CE000104400B208901B9BDDE9091203F0D8FADA
:103CF000189801901C98808EADF800001A98C28820
:103D00001199149800E019E000EB810040881044FC
:103D1000401C00B209901A988288149830F821004B
:103D2000104400B208900A98404202B21B9BDDE9A1
:103D3000080103F0B5FA1398119000BF1398401CC6
:103D400000B21390159913988842FFF676AE1A9830
:103D5000007E00287ED01298401E149901EB80004E
:103D600042880846119900EB81004088101A00B281
:103D70000A901A98B0F91200002851DA18980190A8
:103D80001C98808EADF800001A98428811991498FA
:103D900000EB8100408811180A98084400B208908E
:103DA0001A9802881199149830F821001044401E86
:103DB00000B207901A98418A0A98084400B2099004
:103DC00002461B9BDDE9070103F09EFA189801905B
:103DD0001C98808EADF800001A98C288119914982A
:103DE00000EB8100408811180A98084400B208903E
:103DF0001A9882881199149830F821001044401CB8
:103E000000B207901A98418A0A980844404200B2CA
:103E1000099002461B9BDDE9070103F075FA4CE0AF
:103E2000189801901C98808EADF800001A9842886E
:103E30001199149800EB81004088104400B208905A
:103E40001A980288149830F821001044401E00B2DD
:103E5000079000E032E01A98418A0A98084400B2BC
:103E6000099002461B9BDDE9070103F04DFA189803
:103E700001901C98808EADF800001A98C2881199A4
:103E8000149800EB81004088104400B208901A9802
:103E90008288149830F821001044401C00B207902A
:103EA0001A98418A0A980844404200B20990024692
:103EB0001B9BDDE9070103F027FAACE01298401ED6
:103EC000149931F820200846119930F82100101A71
:103ED00000B20A901A98B0F90E0000284FDA18982C
:103EE00001901C98808EADF800001A9842881199B4
:103EF000149800EB810040881044401E00B20890E6
:103F00001A980288149830F8210011180A98084469
:103F100000B207901A98C1890A98084400B2099023
:103F200002461B9BDDE9070103F0BAF918980190DE
:103F30001C98808EADF800001A98C28811991498C8
:103F400000EB810040881044401C00B208901A9891
:103F50008288149830F8210011180A98084400B299
:103F600007901A98C1890A980844404200B2099003
:103F700002461B9BDDE9070103F092F94AE018981D
:103F800001901C98808EADF800001A984288119913
:103F9000149800EB810040881044401E00B2089045
:103FA0001A980288149830F82100104400B2079043
:103FB0001A98C1890A98084400B2099002461B9BCE
:103FC000DDE9070103F06CF9189801901C98808EC8
:103FD000ADF800001A98C2881199149800EB81007E
:103FE00040881044401C00B208901A9882881498A7
:103FF00030F82100104400B207901A98C1890A983D
:104000000844404200B2099002461B9BDDE90701CB
:1040100003F046F900BF1A98007EB8B91A98B0F9B3
:104020000E00002809DA4FF0FF301090159808B9FB
:10403000002000E010980F901FE001200F901598CD
:1040400008B9002000E00F98109016E01A98B0F917
:104050001200002809DA4FF0FF301090159808B9C7
:10406000002000E010980F9007E001200F901598B5
:1040700008B9002000E00F9810901A980088ADF859
:1040800038001A984088ADF83A0001200B901A9831
:10409000007E00287ED0B3E00020139055E0BDF8EC
:1040A0003820DDE9131030F82100104400B2ADF8DB
:1040B0003000BDF83A20DDE9131000EB81004088A4
:1040C000104400B2ADF83200BDF830101A980089E3
:1040D0000844BDF83810401A401E00B2ADF8340054
:1040E000BDF83200ADF836001C98808E0A9002466A
:1040F0000CA8FB4C189B1B992468A047139800B38D
:10410000DDE9131030F92120481E149931F92000FF
:10411000824216D00B98A0B918980090BDF83210C2
:104120001A98408A081A00B209901C98808E0A904A
:10413000BDF930000890EB4CDDE909131B9A2468A7
:10414000A0471398401C00B2139015991398884209
:10415000A5DB189801901C98808EADF80000BDF882
:1041600038101A980089081A00B20A90BDF83A105F
:104170001498408801441098081A00B20990BDF8BC
:10418000381014980088084400B208901B9BDDE9A1
:10419000091200E0E4E003F083F8189801901C98FD
:1041A000808EADF800001A980089BDF83810401ACA
:1041B00000B20A90BDF83A201298401E149901EB03
:1041C0008000408811180F98084400B20990BDF88B
:1041D00038201298401E149931F82000104400B283
:1041E00008901B9BDDE9091203F05AF800200B90A0
:1041F0001A980089ADF838001A984089ADF83A004D
:104200001A9800F044FB00287FF446AF139054E066
:10421000BDF83820DDE9131030F82100104400B259
:10422000ADF83000BDF83A20DDE9131000EB810055
:104230004088104400B2ADF83200BDF830101A9832
:1042400000890844BDF83810401A00B2ADF83400B7
:10425000BDF83200ADF836001C98808E0A900246F8
:104260000CA89F4C189B1B992468A047139800B377
:10427000DDE9131030F92120481E149931F920008E
:10428000824216D00B98A0B918980090BDF8321051
:104290001A98408A081A00B209901C98808E0A90D9
:1042A000BDF9300008908F4CDDE909131B9A246892
:1042B000A0471398401C00B2139015991398884298
:1042C000A6DB189801901C98808EADF800001A9813
:1042D0000089BDF83810401A401C404200B20A90D4
:1042E000BDF83A101498408801441098081A00B29A
:1042F0000990BDF8381014980088084400B208905E
:104300001B9BDDE9091202F0CBFF189801901C9865
:10431000808EADF800001A980089BDF83810401A58
:10432000401C00B20A90BDF83A201298401E149921
:1043300001EB8000408811180F98084400B20990E2
:10434000BDF838201298401E149931F8200010440E
:1043500000B208901B9BDDE9091202F0A1FF6EE19B
:10436000B5E0002013905AE0BDF83820DDE91310C5
:1043700030F82100104400B2ADF83000BDF83A200A
:10438000DDE9131000EB81004088104400B2ADF865
:104390003200BDF83000ADF83400BDF832101A9884
:1043A00040890844BDF83A10401A401E00B2ADF8EA
:1043B00036001C98808E0A9002460CA8484C189B28
:1043C0001B992468A047139828B3DDE9131000EB6C
:1043D0008100B0F90220481E149901EB8000B0F969
:1043E0000200824217D00B98A8B918980090BDF827
:1043F00030101A98C089081A00B208901C98808E54
:104400000A90BDF9320009900146364C0A9B1B9A6E
:1044100008982468A0471398401C00B2139015997F
:1044200013988842A0DB189801901C98808EADF8F4
:104430000000BDF83A101A984089081A00B20A9094
:10444000BDF83A1014984088084400B20990BDF8AD
:1044500038101498008801441098081A00B2089087
:104460001B9BDDE9091202F04FFF189801901C9880
:10447000808EADF800001A984089BDF83A10401AB5
:1044800000B20A90BDF83A201298401E149901EB30
:1044900080004088104400B20990BDF8382012987E
:1044A000401E31F8200011180F98084400B20890FF
:1044B0001B9BDDE9091202F027FF00200B901A98E0
:1044C0000089ADF838001A984089ADF83A001A987A
:1044D00000F0CCF900287FF444AF13905EE00000B8
:1044E000607901085C790108BDF83820DDE9131016
:1044F00030F82100104400B2ADF83000BDF83A2089
:10450000DDE9131000EB81004088104400B2ADF8E3
:104510003200BDF83000ADF83400BDF832101A9802
:1045200040890844BDF83A10401A00B2ADF8360090
:104530001C98808E0A9002460CA8444C189B1B992C
:104540002468A047139828B3DDE9131000EB81001D
:10455000B0F90220481E149901EB8000B0F9020066
:10456000824217D00B98A8B918980090BDF8301067
:104570001A98C089081A00B208901C98808E0A9078
:10458000BDF9320009900146314C0A9B1B9A0898EC
:104590002468A0471398401C00B2139015991398F3
:1045A0008842A1DB189801901C98808EADF800001D
:1045B0001A984089BDF83A10401A401C404200B297
:1045C0000A90BDF83A1014984088084400B2099047
:1045D000BDF838101498008801441098081A00B2E9
:1045E00008901B9BDDE9091202F08EFE18980190DD
:1045F0001C98808EADF800001A984089BDF83A10DA
:10460000401A401C00B20A90BDF83A201298401E91
:10461000149901EB80004088104400B20990BDF865
:1046200038201298401E31F8200011180F980844C5
:1046300000B208901B9BDDE9091202F065FE149898
:104640000A90FEF7A5F91EB010BD000060790108C0
:104650005C7901082DE9F04F85B00446894615467E
:104660001E46E88E401E07B24FEA670807F0010AAF
:10467000FF2E02D13820405D03E03820405D7043BA
:10468000001283462088A0EB080000B2ADF80C00B1
:10469000A0884044504400B2ADF810006088ADF8E6
:1046A0000E00E088ADF81200BDF90C00BDF9101045
:1046B000884202DABDF90C0001E0BDF91000ADF846
:1046C0000400BDF90C00BDF91010884202DDBDF9EF
:1046D0000C0001E0BDF91000ADF80800BDF90E00B6
:1046E000BDF91210884202DABDF90E0001E0BDF9F1
:1046F0001200ADF80600BDF90E00BDF91210884297
:1047000002DDBDF90E0001E0BDF91200ADF80A00AE
:10471000A88E5B4602464946009001A8DFF80CC00F
:10472000DCF800C0E04705B0BDE8F08F6079010813
:1047300030B50B8803804B8843801388838054886E
:10474000C480B0F90430B0F900401B1B002B05DD1C
:10475000B0F90430B0F900401B1B04E0B0F90030A0
:10476000B0F904401B1B1BB28381B0F90030B0F9D3
:104770000440A34201DA012301E04FF0FF33C3817B
:10478000B0F90630B0F902401B1B002B05DDB0F973
:104790000630B0F902401B1B04E0B0F90240B0F94A
:1047A0000630E31A1BB20382B0F90240B0F90630BA
:1047B0009C4201DA012301E04FF0FF334382B0F95C
:1047C0000C40B0F91050AC4202DDB0F90C4002E0F0
:1047D000B0F910406442234604EBD374641024B251
:1047E00084820023C382B0F90C30B0F91040A34298
:1047F00001DD012300E00023037603880381448860
:10480000448130BD0146B1F90800B1F9042090425D
:1048100007D1B1F90A20B1F90600824201D1002086
:104820007047888AC882B1F91600B1F90C2052424B
:10483000904209DD888A0A8A801A00B28882088933
:10484000CA89104400B20881B1F91600B1F91020EC
:10485000904209DA888A8A89104400B2888248899D
:104860004A8A104402B24A810120D9E770B5044651
:10487000B4F9085000BF2046FFF7C4FF08B9002074
:1048800070BDB4F90800A842F5D00120F8E770B572
:104890000446B4F90A5000BF2046FFF7B3FF08B939
:1048A000002070BDB4F90A00A842F5D00120F8E755
:1048B00070B50546686818B1D5E9000100F024F824
:1048C0000F4808F0B7F804460CB900BFFEE704B97A
:1048D00070BD95F8200020F0040085F82000242207
:1048E00029462046FBF775FD606818B1D4E900023F
:1048F0002169904701200349087000BFE8E70000E4
:10490000FC300320580200202DE9F04107460D46F7
:104910004FF00008104808F063F8044617E02146FD
:104920000D4808F062F806462068B8420ED160686B
:10493000A84200D055B92146074808F0F7F82046AC
:1049400008F0C4FB01200549087080463446002C5D
:10495000E5D14046BDE8F081FC300320580200203C
:1049600010B52421064808F05AF80CF085FC0549DA
:104970000860002303221E2103480CF041FB10BDF8
:10498000FC300320540200209520000810B5014699
:104990000B8BB1F91A40A34202D14FF4806206E0BA
:1049A000B1F91A309B020C8B93FBF4F39AB2D1E964
:1049B00004431B1B03FB02F080120B69184410BD5B
:1049C00030B504460B46981A002801DD981A00E01D
:1049D000D01A05464FF47A70684390FBF4F1B1F5B4
:1049E000803F01D34FF6FF7101B9491C88B230BD39
:1049F0000A6802604A68426070470A6802604A6852
:104A0000426070470A6802604A68426070470A68FC
:104A100002604A68426070470A6802604A68426001
:104A200070470146C8884A88801A401C00B2704707
:104A30000146C8884A88801A401C00B27047014667
:104A4000C8884A88801A401C00B270470146C8884E
:104A50004A88801A401C00B270470146C8884A88BC
:104A6000801A401C00B2704710B50146B1F904200D
:104A7000B1F90030D21A521CB1F90630B1F9024036
:104A80001B1B5B1C02FB03F010BD014688880A88D3
:104A9000801A401C00B27047014688880A88801A34
:104AA000401C00B27047014688880A88801A401C62
:104AB00000B27047014688880A88801A401C00B2FC
:104AC0007047014688880A88801A401C00B27047E7
:104AD000014688880A88801A401C00B27047014647
:104AE00088880A88801A401C00B2704730B5034697
:104AF000B1F90040B2F90050AC4202DDB1F900401A
:104B000001E0B2F900401C80B1F90240B2F9025054
:104B1000AC4202DDB1F9024001E0B2F902405C8032
:104B2000B1F90440B2F90450AC4202DAB1F90440E0
:104B300001E0B2F904409C80B1F90640B2F9065098
:104B4000AC4202DAB1F9064001E0B2F90640DC807D
:104B50000120B3F90040B3F90450AC4205DCB3F9CD
:104B60000240B3F90650AC4200DD002030BD10B564
:104B700002460020B2F90030B1F90040A34212DB36
:104B8000B2F90230B1F90240A3420CDBB2F90430B1
:104B9000B1F90440A34206DCB2F90630B1F906408F
:104BA000A34200DC012010BD0246B2F90000B1F9B9
:104BB0000430984213DCB2F90400B1F90030984295
:104BC0000DDBB2F90200B1F90630984207DCB2F908
:104BD0000600B1F90230984201DB01207047002045
:104BE000FCE710B502460020B1F90030B2F90040F0
:104BF000A34212DBB1F90030B2F90440A3420CDC4D
:104C0000B1F90230B2F90240A34206DBB1F9023039
:104C1000B2F90640A34200DC012010BD10B5B1F985
:104C20000030B2F90040A34202DAB1F9003001E0ED
:104C3000B2F900300380B1F90230B2F90240A34268
:104C400002DAB1F9023001E0B2F902304380B1F981
:104C50000430B2F90440A34202DDB1F9043001E0AE
:104C6000B2F904308380B1F90630B2F90640A342AC
:104C700002DDB1F9063001E0B2F90630C38010BDA3
:104C800010B5029C018042808380C48010BD4288A0
:104C90000A44521E12B2C2807047F0B503460C4659
:104CA000154600BF98881988401A401C00B2064675
:104CB00000BFD8885988401A401C00B207461C80A3
:104CC0005D803146184600F005F839461846FFF772
:104CD000DEFFF0BD02880A44521E12B28280704785
:104CE0002DE9F04180460E463146404608F068FC0A
:104CF00007460FB900BFFEE717B90020BDE8F081F5
:104D00003248006820B9384608F09CFE2F490860F8
:104D10002F48006820B9384608F044FE2C49086046
:104D20000C21384608F039FC04460CB900BFFEE7F8
:104D30000CB90020E2E7002060806420A080002001
:104D400020802448A0602449384609F025F82349EA
:104D5000384608F06CFF0EBB0021384608F05EFFB5
:104D60002122C821384609F019F8B4F90010384654
:104D700000F08CF90CF06CFA054655B1002138466C
:104D80002A6D00F069F9012138466A6D00F064F976
:104D900003E01349384609F037F814E0304608F0CC
:104DA00016FE054668886080A888A0802888208034
:104DB000A868A060384608F023FFB4F90010384610
:104DC00000F064F900BF384698E700005003002067
:104DD0004C03002094E20220D9500008E54D000861
:104DE00058E202202DE9F04F8FB006468A4617465A
:104DF000022F08D13A4651463046684B1B68984707
:104E00000FB0BDE8F08F002F7ED1304608F0F6FDE0
:104E10008346304608F0D1FE98B10021304600F0BC
:104E2000D1F80546294668460BF03EFB0021ADF857
:104E30000C105B466A46514606F1100002F039FD3F
:104E400005E03A4651463046544B1B689847304679
:104E500008F0BDFD0446B4F90010B4F90200814227
:104E600078D00121304600F0ADF805460DA8316933
:104E700001607169416000BFBDF83410288B08449F
:104E800000B2ADF83400BDF83810288B081A00B213
:104E9000ADF83800BDF83610E88A084400B2ADF825
:104EA0003600BDF83A10E88A081A00B2ADF83A00A8
:104EB00000BFBDF83800BDF83410401A401C00B2E5
:104EC000804600BFBDF83A00BDF83610401A401CBD
:104ED00000B28146C8451CDBB4F90000B4F90210E9
:104EE000401A401E00FB08F0B4F90410B4F9022087
:104EF000891A90FBF1F000B2ADF83800BDF834002B
:104F0000BDF83810084400E025E000B2ADF83800E4
:104F100019E0B4F90000B4F90210401A401E00FB79
:104F200009F0B4F90410B4F90220891A90FBF1F0E9
:104F300000B2ADF83600BDF83A00BDF83610401AA0
:104F400000B2ADF836005B462A4651460DA802F085
:104F5000B0FC00BF20E0012F1ED1304608F02DFE2E
:104F6000D0B1304608F04AFD04460021304600F03A
:104F700029F80546294668460BF096FA01218DF876
:104F80001C100021ADF8121023466A46514606F166
:104F9000100002F08EFC00BF012031E74C0300201E
:104FA00070B50446204608F012FD0546B5F9040028
:104FB00070BD70B50446204608F009FD0546B5F9F8
:104FC000020070BD70B505460C46284608F0FFFC8F
:104FD000064614B1012C06D103E0284608F036FD40
:104FE00070BDB068FCE70020FAE770B504462046C3
:104FF00008F0EDFC0546B5F9000070BD2DE9F04163
:1050000007460D461646384608F0E1FC0446B4F95A
:105010000200A84205D1B4F90400B04201D1BDE8B4
:10502000F081A6806580B4F90000B04205DD2680DD
:10503000B4F90010384600F029F8B4F90000A8428D
:1050400005DA2580B4F90010384600F01FF838461C
:1050500008F054FD00BFE2E72DE9F04106460D4699
:105060001446304608F0B3FC074615B1012D0AD1AD
:1050700004E02146304608F0C7FE04E0BC6030463C
:1050800008F0B1FD00BF00BFBDE8F08170B5064675
:105090000D46304608F09BFC0446B4F90000A842D7
:1050A00000D170BDB4F90400A84202DAB4F90400DA
:1050B00000E028462080B4F90000B4F902108842CC
:1050C00002DAB4F9020001E0B4F9000020803046B1
:1050D00008F014FD00BFE4E72DE9F04104460D4659
:1050E0001646324629462046164B1B689847074607
:1050F000012F02D03846BDE8F081042D0ED10121E8
:105100002046FFF75FFF8046B8F91200B4F934106B
:10511000884202DDB8F81200A08611E0052D0FD1FB
:105120003146002005E051F8202002B903E0421C7E
:10513000D0B20728F7DB00BF03A241F8202000BF50
:105140003846D8E7500300206C765F626172000039
:105150002DE9F04780460F463946404600F00EFEE6
:1051600006460EB900BFFEE716B90020BDE8F0877D
:105170004F48006820B9304608F064FC4C4908608C
:105180004C48006820B9304608F00CFC49490860DA
:105190003421304608F001FA04460CB900BFFEE79E
:1051A0000CB90020E2E7002084F828000021A1606B
:1051B0006060E1602161404860614049A16140490F
:1051C000E16140492162404961622A34A07920F0BE
:1051D0000200A071A07920F00100A07100202080C1
:1051E0006080A0802A3C3949304608F0D5FD384916
:1051F000304608F01CFD8FBBB8F1000F07D04FF010
:1052000001094946304601F05BFA00BF00BF0121A9
:10521000304608F003FD0CF01BF80546CDB1002127
:105220003046EA6800F02FFA012130462A6900F082
:105230002AFA022130466A6900F025FA0321304635
:10524000AA6900F020FA04213046EA6900F01BFA4E
:1052500003E03046616908F0D7FD26E0FFE73846F5
:1052600008F0B5FB054695F8280084F8280095F865
:10527000301094F8300061F3000084F83000688D3D
:105280006085A88DA085E88DE085281D0FC8241DA8
:105290000FC4143C142205F1140104F11400FBF7AF
:1052A00098F8304608F0ACFC00BF30465EE70000DE
:1052B0005403002058030020D0E202200CE3022017
:1052C00048E3022084E30220C0E30220D556000810
:1052D000D55200082DE9F74F96B004469046B8F134
:1052E000020F03D1002019B0BDE8F08FB8F1000F14
:1052F0007ED189480068844206D042462046874BCA
:1053000017991B68984705E1204608F077FB159030
:10531000204608F05CFB054681480078002868D1EB
:1053200005F114007F4A127850F8221006A80BF0FD
:10533000BBF805F114007C49097850F82100418A36
:10534000ADF82A1006AA04F11000159B179902F077
:10535000B0FA204608F0B2FB8146204608F040FB38
:105360008246D14501DA494600E05146084601EB44
:10537000D07149100FFA81FB6C48B0F90000802809
:1053800003DA6A48B0F9000000E080200646684869
:105390000088ADF80C0066484088ADF80E0048461D
:1053A00009EBD071228A02EB6101BDF80C20891A49
:1053B00009B2029150460AEBD0714A10618A114439
:1053C000BDF80E20891A09B20191BDF80C1002989F
:1053D000704301EBE01000B2ADF80C00BDF80E1008
:1053E0000198704301EBE01000B2ADF80E0001E04F
:1053F00087E064E0D14501DD494600E051460846BA
:1054000001EBD07149100FB2BDF80C1007FB06F08C
:10541000A1EBE01000B2ADF81000BDF80E1007FBD4
:1054200006F0A1EBE01000B2ADF81200BDF80C10D0
:1054300007FB06F001EBE01000B2ADF81400BDF878
:105440000E1007FB06F001EBE01000B2ADF81600FD
:1054500004AA04F1100104A8FFF748FB3348B0F98F
:105460000000802804DD3148B0F90000803800E0F9
:10547000002000B2009005F114002B4A127850F879
:10548000221006A80BF010F805F114002549097840
:1054900050F82100B0F90600A0EB0B010098414341
:1054A0000BEBE11001B2ADF81E100021ADF8241095
:1054B00006AA04A8159B179902F0FBF920E005F154
:1054C0001400184A127850F8221006A80AF0ECFFCF
:1054D000164A128893B205F11402134E367852F828
:1054E0002610104E367852F8260006AA0BF028FA3D
:1054F00006AA04F11000159B179902F0DAF900BF13
:1055000008E0B8F1010F05D142462046034B179938
:105510001B6898470120E6E660030020580300203E
:105520006703002064030020650300205C03002063
:105530006803002070B50446204608F048FA054686
:1055400095F8280070BD70B50446204608F03FFA73
:10555000054695F8300000F0010070BD70B50546B5
:105560000C462DB120B203490880284608F0C6FA3F
:1055700070BD00005C03002070B58AB00646284864
:10558000006808F024FA044625480068FFF7D2FFB7
:1055900005462348006808F0B1FA01202149087047
:1055A0000DB1022D37D194F8300000F0010088BB16
:1055B0001D48007870BB1A48006801904FF4807055
:1055C0000590002006901948029019480490194847
:1055D0000390A08D404200B2ADF81E00E08DADF802
:1055E0001C009DF8240020F001008DF8240000200C
:1055F000ADF820009DF8240020F002008DF8240072
:105600000020ADF8220001A8FFF752F90120064959
:10561000087003E0FFE70020014908600AB070BD90
:105620006003002066030020670300205D5500082A
:105630008D490008795500082DE9F04107460C46D0
:105640001646042C01DBBDE8F081384608F0BFF9AE
:105650000546281D40F8246000BFF4E770B50646F3
:105660000C46304608F0B3F9054695F82800A042EC
:1056700008D085F8284005F1140050F82410304671
:1056800008F0C2FB70BD2DE9F04107460E461546F5
:10569000384608F09CF90446052E0ED2DFE806F0E5
:1056A000030507090B00656107E0A56105E0E561F9
:1056B00003E0256201E0656200BF00BF94F8282086
:1056C00004F1140050F82210384608F09DFBBDE8A4
:1056D000F08100002DE9F04F89B007460D46924653
:1056E000524629463846FA4B1B6898478346BBF119
:1056F000010F03D0584609B0BDE8F08F384608F0D6
:1057000066F904463846FFF715FF06463846FFF7A8
:105710001AFF8046062D77D194F8280050B9012150
:105720003846FFF79BFF0020EA4908700120EA494C
:1057300008700DE094F82800022809D103213846AA
:10574000FFF78CFF0220E34908700320E24908704C
:1057500094F8300020F0020084F83000DF48006840
:1057600078B1DE480068B8420BD0DD49DB480068FC
:10577000FFF7CAF8D948006808F0C0F90020D749F7
:105780000860608D002834DDD44807600020D549CA
:105790000870D549087006F0A7F98146D34906F08C
:1057A000A9F90097002004904FF480700590CC4830
:1057B0000190CF480390CF4802900020ADF81A0026
:1057C000608DADF818009DF8200020F001008DF8E4
:1057D00020000020ADF81C009DF8200020F0020001
:1057E0008DF820000020ADF81E006846FFF760F835
:1057F00000BFA068002805D0042EFCD03846A16860
:10580000884783468AE1FFE7082D11D194F82800E4
:10581000012804D100213846FFF720FF7EE194F8EB
:1058200028000328EED102213846FFF717FF75E163
:10583000072D16D1504606F081F90028E2D094F8E1
:105840002800012804D100213846FFF707FF65E151
:1058500094F828000328D5D102213846FFF7FEFE30
:105860005CE1092D7ED1504606F068F9E0BB94F862
:105870003000C0F34000B8BB94F82800012807D1DD
:10588000B8F1000F04D100213846FFF7E7FE22E00F
:1058900094F82800032807D1B8F1000F04D10221A1
:1058A0003846FFF7DBFE16E094F82800012807D100
:1058B000B8F1010F04D102213846FFF7CFFE0AE00C
:1058C00094F82800032806D1B8F1010F03D1002174
:1058D0003846FFF7C3FE6068C0B1042E16D03846C4
:1058E00061688847834611E0FFE794F828000128A3
:1058F00004D100213846FFF7B1FE07E094F82800F4
:10590000032803D102213846FFF7A8FE94F830009F
:1059100000F0010020B194F828006F490870FDE004
:1059200071480078002892D0E08D00288FDD6B4808
:10593000076001206B49087006F0D6F881466B4974
:1059400006F0D8F86548006800904FF48070049025
:1059500000200590624801906548039065480290D8
:10596000002000E01AE0ADF81A00E08DADF8180054
:105970009DF8200020F001008DF820000020ADF8F7
:105980001C009DF8200020F002008DF8200000206F
:10599000ADF81E006846FEF78BFFBFE00A2D10D160
:1059A000E0680028BBD0042EB9D094F8300020F075
:1059B0000200801C84F830003846E168884783463E
:1059C000ACE00B2D09D120690028A8D0042EA6D068
:1059D0003846216988478346A0E0102D6AD19AF89D
:1059E0000090B9F1130F02D0B9F1110F13D138465D
:1059F000FFF7A9FD18B102213846FFF72FFE6068B6
:105A000010B33846FFF796FD042852D03846616837
:105A1000884783464DE0B9F1140F02D0B9F1120F57
:105A200013D13846FFF78FFD18B100213846FFF734
:105A300015FE606840B13846FFF77CFD042838D079
:105A4000384661688847834633E0B9F10A0F30D1A0
:105A500094F83000C0F3400028BB3846FFF773FDD0
:105A6000C8B126B902213846FFF7F8FD13E0012E30
:105A700004D103213846FFF7F1FD0CE0022E04D1DA
:105A800000213846FFF7EAFD05E0032E03D101218E
:105A90003846FFF7E3FD606828B1042E03D038468E
:105AA00061688847834694F8300020F0020084F84B
:105AB000300033E005BB0948006887422ED1084911
:105AC00006480068FEF720FF00200449086025E032
:105AD00054030020640300206503002060030020BD
