:020000040800F2
:1000000038150320C1010008633B00088B0200087B
:100010005F3B0008D30B0008213F000800000000F0
:10002000000000000000000000000000053D000886
:10003000D70B00080000000013020008073D00086D
:10004000DB010008DB010008DB010008DD3C0008E3
:10005000DB010008DB010008DB010008E50B0008FC
:10006000DB010008DB010008DB010008DB01000800
:10007000DB010008DB010008DB010008DB010008F0
:10008000DB010008DB010008DB010008DB010008E0
:10009000DB010008DB010008DB010008DB010008D0
:1000A000DB010008DB010008DB010008DB010008C0
:1000B000DB010008DB010008DB010008DB010008B0
:1000C000DB010008DB010008DB010008DB010008A0
:1000D000DB010008A13E0008E13E0008DB0100084A
:1000E000DB010008DB010008DB010008DB01000880
:1000F000DB010008DB010008DB010008DB01000870
:10010000DB010008DB010008DB010008DB0100085F
:10011000613E0008DB010008DB010008DB0100088C
:10012000DB010008DB010008DB010008DB0100083F
:10013000DB010008DB010008DB010008DB0100082F
:10014000DB010008DB010008DB010008DB0100081F
:1001500000000000DB010008DB010008DB010008F3
:10016000DB010008DB0100080000000000000000C7
:100170000000000000000000DB010008DB010008B7
:10018000DB01000800000000DB010008DB010008C3
:10019000000000000000000000000000000000005F
:1001A000DB010008DB010008DFF80CD000F0D4FC14
:1001B00000480047C79E00083815032040BA704722
:1001C0000648804706480047FEE7FEE7FEE7FEE7F1
:1001D000FEE7FEE7FEE7FEE7FEE7FEE7193D000863
:1001E000A9010008EFF3108072B6704780F3108801
:1001F0007047324A1368012B04D04FF0010313609B
:100200002F4A10602F4A11602F484FF08051016033
:100210007047EFF3108272B62848016891B14FF031
:10022000000101602648016829B1EFF3098121E945
:10023000F00F00680160234909680968B1E8F00F10
:1002400081F3098882F310884EF0040E70471D492F
:1002500008601B494FF00000086018494FF001008A
:1002600008601A484FF47F01D0F8002041EA0201EB
:10027000016015484FF08051016015480068006822
:1002800080F3088861B662B670471EF0040F14BF91
:10029000EFF30880EFF3098020E9F00F40F804ED58
:1002A00014BF80F3088880F3098800B50AF0C0F90C
:1002B0005DF804EB4EF0040E704700002C000020A7
:1002C000240000202800002004ED00E020ED00E0E4
:1002D00008ED00E02DE9FE4399461546884607469D
:1002E00001AC022942D3002D40D000200290A8F199
:1002F00001004FF0FF36009022E000FB057201FB89
:10030000057011464A469047002805DC54F826003F
:10031000304444F8260013E060682A4600FB05716B
:1003200054F8040C00FB057007E00B7890F800C04F
:1003300001F801CB00F8013B521E002AF5D17642AC
:1003400054F8040C61688842D7DC4B462A4638468C
:10035000FFF7C0FF54F8040C4B46A8EB0001401C0B
:1003600000FB05702A46491EFFF7B4FFBDE8FE8377
:1003700010B5441A0346944209D28418114403E08C
:1003800011F8013D04F8013D521EF9D210BD40EABA
:100390000104A40703D009E010C9121F10C3042AE6
:1003A000FAD203E011F8014B03F8014B521EF9D2C7
:1003B00010BDD2B201E000F8012B491EFBD27047FC
:1003C0000022F6E710B513460A4604461946FFF721
:1003D000F0FF204610BD30B504460020034600E083
:1003E0005B1C934203D2E05CCD5C401BF8D030BD77
:1003F000F0B480EA0102D40F4200B2EB410F02D206
:100400000246084611464A0042D0C30DDDB2C1F390
:10041000C752AD1A202D35DAC1F3160141F400029E
:1004200004B15242C5F1200602FA06F12A411044F5
:10043000B3EBD05F23D0C4B1012DA0EBC35009DCD6
:10044000F0BC4FF0004202EAC352DBB200F50000FC
:1004500000F0F6BA400000F1807000EBC350A0F14C
:10046000807040EAD170490009E0490841EAC07152
:10047000A0EBC35000F50000400800EBC350F0BCF7
:1004800000F0D5BA6142012202EB4101001BF6E700
:10049000F0BC704781F00041AAE780F00040A7E778
:1004A00080EA010210B502F00043400022D04A0069
:1004B0001FD0010E01EB1261C0F35600C2F35602C9
:1004C00040F4000042F40002A0FB022000047F3947
:1004D000140400D0401C50EA124001D44000491ED0
:1004E000C2B20C0604EBD010401C4008802A02D097
:1004F00003E0002010BD20F00100002900DA0020F8
:10050000184310BD30B480EA010202F0004530F01B
:10051000004221F0004013D090B1C30DD40DC2F3BE
:100520001601C0F31600E41A41F4000140F4000281
:100530007D34914201D3641C00E04900002C02DAB2
:1005400030BC002070474FF400000023914201D3DB
:10055000891A034340084FEA4101F7D151B1914252
:1005600002D14FF0004105E002D24FF0010101E05D
:100570006FF0010103EBC450284430BC00F057BABF
:100580002DE9FE4F804681EA0300C00F0C46009023
:1005900021F0004123F00045B8EB0200A94105D24B
:1005A0004046214690461C460B46024623F000403A
:1005B000104347D0270DC7F30A00C3F30A51029036
:1005C000401A019040286BDAC3F3130040F4801BFB
:1005D0000098924620B10023D2EB030A63EB0B0B89
:1005E00001985946C0F14002504600F0EFF9064626
:1005F0000D4650465946019A00F007FA10EB0800E4
:100600006141002487EA115284EAE7731A4340D01B
:10061000009A62B3019A012A4FEA075215DC001BC7
:1006200061EB02014FF0004202EA0752CDE90042BD
:10063000001C41F5801132462B4600F03EFA03B013
:10064000BDE8F08F40462146F9E7001B61EB02014F
:10065000001C41F5801300185B412018A2F500171B
:1006600047EB030140EAD570B6196D4111E06D0802
:100670004FEA360645EAC0754FEA0752001B61EBA8
:100680000201001C41F5801149084FEA30000019B1
:10069000514132462B4603B0BDE8F04F00F0FEB9A1
:1006A0000098012240000023D0EB020263EBE073CC
:1006B000009821464FEAE074B8EB000061EB0401BA
:1006C000E9E783F000435BE781F0004158E72DE95B
:1006D000FE4F81EA030404F0004421F0004100943D
:1006E0004FF0000B23F0004350EA01045ED052EAC1
:1006F00003045BD0C3F30A54C1F30A552C44A4F29B
:10070000F3340194A0FB0254C1F3130141F48011AE
:10071000C3F3130343F4801301FB024400FB034EB5
:10072000840A970A44EA815447EA8357A4FB07687E
:1007300002958D0A05FB07854FEA932C04FB0C54A8
:100740002705029D4FEA065847EA1637B5EB08051C
:100750006EEB070C870E920E47EA811742EA83126E
:10076000A7FB0201B6EB0B0164EB00042B0D43EA7F
:100770000C335E1844EB1C50DA465146E7FB02018D
:10078000C5F313044FEA0B3343EA14534FEA043220
:10079000019C43EA0603A4F10C040294009CCDE9F9
:1007A00000B400F08AF903B0BDE8F08F00200146E4
:1007B000F9E72DE9F04D81EA030404F0004B21F044
:1007C000004514464FF0000A23F0004150EA0502AC
:1007D00020D054EA01021DD0C5F30A570246C5F3E2
:1007E0001303C1F31300C1F30A5640F4801543F418
:1007F0008013A7EB0608101BD64608F2FD3873EBF2
:10080000050002D308F1010801E092185B41B8F13C
:10081000000F03DA00200146BDE8F08D00204FF400
:100820008011064684460EE0171B73EB050705D3BF
:10083000121B63EB050306434CEA010C49084FEA1F
:10084000300092185B4150EA0107EDD152EA0300F3
:1008500012D082EA040083EA0501084305D0101B88
:10086000AB4106D20122002306E000224FF00043F4
:1008700002E06FF0010253101AEB06004CEB085136
:1008800010EB0A0041EB0B01BDE8F04D00F006B99A
:10089000C10F80EAE0700844CA079623002100F0E7
:1008A000CFB80EB540F2334102910021CDE90011DD
:1008B0000A460B4600F001F903B000BD00F000420B
:1008C00020F00040C10DC0F3160040F400007F2965
:1008D00001DA00207047962903DCC1F19601C84077
:1008E00001E096398840002AF4D04042704720F059
:1008F0000040C10DC0F3160040F400007F2901DA6A
:1009000000207047962903DCC1F19601C84070476A
:1009100096398840704700F0004230F000400AD01D
:10092000C10D01F56071C0F3160042EA0151C20821
:1009300040071143704700200146704730B5041E40
:1009400071F1000404DB4FF00044404264EB01010C
:10095000141E73F1000405DB1C464FF000435242A5
:1009600063EB04038B4208BF824230BD01F00043B9
:1009700030B421F0004150EA010206D00A0DA2F580
:100980006072C1F31301002A02DC30BC0020704702
:10099000440F44EAC104C100E01830BC00EBC2506F
:1009A00000F045B8002801DBC0F10040002901DB60
:1009B000C1F1004181427047002801DBC0F10040D5
:1009C000002901DBC1F1004188427047202A04DB85
:1009D000203A00FA02F1002070479140C2F1200352
:1009E00020FA03F3194390407047202A04DB203A91
:1009F00021FA02F00021704721FA02F3D040C2F13F
:100A000020029140084319467047202A06DBCB1785
:100A1000203A41FA02F043EAE07306E041FA02F3B9
:100A2000D040C2F120029140084319467047002986
:100A3000A8BF7047401C490008BF20F00100704764
:100A400010B4B0FA80FC00FA0CF050EA010404BFC4
:100A500010BC704749B1CCF1200421FA04F411FA1A
:100A60000CF118BF012121430843A3EB0C01CB1D5E
:100A70004FEA00614FEA102042BF002010BC7047CF
:100A800000EBC35010440029A4BF10BC7047401CA9
:100A9000490008BF20F0010010BC704710B5141EBB
:100AA00073F1000408DA401C41F1000192185B4127
:100AB0001A4301D120F0010010BD2DE9F04D9246FE
:100AC0009B4611B1B1FA81F202E0B0FA80F2203215
:100AD0009046FFF77BFF04460F4640EA0A0041EAD2
:100AE0000B0153465A46084313D0114653EA0100FE
:100AF00019D0C8F140025046FFF777FF05460E4671
:100B0000504659464246FFF761FF084305D0012091
:100B100004E020463946BDE8F08D0020054346EA52
:100B2000E0762C4337430A986305E40AA0EB0800FB
:100B30000022FD0A44EA47540A3002D5002001464B
:100B4000E9E7010510196941DDE908450019694126
:100B5000BDE8F04DA2E70000064C074D06E0E06856
:100B600040F0010394E8070098471034AC42F6D3F4
:100B7000FFF71EFB64EB000884EB000870B58C18CF
:100B800010F8015B15F0070301D110F8013B2A11A1
:100B900006D110F8012B03E010F8016B01F8016B8E
:100BA0005B1EF9D12B0705D40023521E0DD401F88A
:100BB000013BFAE710F8013BCB1A921C03E013F853
:100BC000015B01F8015B521EF9D5A142D8D3002088
:100BD00070BD00BFFEE7704700E0401E0028FCD15A
:100BE0007047000008B5022008F0DAFF78B1012054
:100BF000009009F055FD022008F0CCFF0122694663
:100C0000034800680AF004F809F064FD00BF08BD5D
:100C10002401002008B56B4602220321382009F088
:100C20001FF99DF801009DF8001001F00F0140EA46
:100C3000012008BD08B56B4602220521382009F0C5
:100C40000FF99DF801009DF8001001F00F0140EA36
:100C5000012008BD10B502460020521C002305E00B
:100C600014780444E0B2521C5C1CE3B28C1E9C421B
:100C7000F6DCC443641CE0B210BD00000E4810B5A1
:100C8000006801F085F90D48006801F08CF9012039
:100C900001F0F4F9002001F0FFF9002001F00CFA56
:100CA000002001F091F90648006801F099F9BDE8CB
:100CB0001040002001F0B4B93C01002038010020B0
:100CC000340100202DE9F04FDFF828B191B04FF04A
:100CD000FF35DBF80030B3F922100691DE69B3F975
:100CE00024A0F469A189814206D8E289824203D313
:100CF000471AD4F8008012E0D4E90181002970D0AD
:100D00000A8882426DD84D8885426AD3801A82B2A1
:100D1000486800EB8200B0F90070B0F90250781C0E
:100D20005FD0307EA27C014600FB02F9207CCDE939
:100D30000710B3F92A60304602F054FDC0B20E909D
:100D4000DBF8001007FB0980A37C8A6B0127CDE943
:100D50000402CDE90273C869089AC17E807ECDE99C
:100D60000001DDE90603514602F0F6F8681C18D0D0
:100D700046F0020002F036FDDBF80000A37C05FB24
:100D80000981826BCDE90273CDE90412C069089A2A
:100D9000C17E807ECDE90001DDE90603514602F007
:100DA000DBF8DBF800005D46C069417E007E8142D1
:100DB00014D9022E12D086F0040002F013FD286828
:100DC000C069027EC37E857E02FB03A1437E089A32
:100DD0000698534402FB050202F020FA0E9802F036
:100DE00001FDDBF80000627C418C1144418411B0AC
:100DF000BDE8F08F4001002004480068C069C06968
:100E000009B1027C0A60407C70470000400100206C
:100E1000022008807047C06982898A4202D8C2894C
:100E20008A4210D2806880B102888A420DD84388F5
:100E30008B420AD3406800EB8100A0EB8200B0F93E
:100E40000000002801DB01207047002070470000EF
:100E50002DE9F0410025154E154C18E02069C5EB31
:100E6000451700EB87007422001D3168FFF780FAF8
:100E70002069002140F8271000EB870000F10C01E9
:100E80008161011D0A1DC0E90F126D1C4164A0683B
:100E90008542E3DB06F086FD2169C0EB401001EBE3
:100EA0008000001D3060BDE8F0810000400100209E
:100EB000C401002070B510490E480860084601F0D2
:100EC00071FF0D4C143CA068C0EB40108500284613
:100ED00000F06CF8094B20612A461B6800219847F6
:100EE0004FF0FF30206001F0C1FABDE8704006F01D
:100EF00059BD00005D7D0008D8010020AC01002034
:100F000010B5040009D000F07FFB204604F0B4FBCC
:100F1000044601F087FA204610BD002010BD0000F5
:100F200038B5054600F070FB2846FFF7E9FF0400DE
:100F30000AD000F0B3F8064B00902A461B68002147
:100F40009847684600F0D2F801F06CFA204638BDA8
:100F5000AC010020024A106021F00300506070478D
:100F600048F3022010B5040011D000F04DFB0848F2
:100F7000042101EBC401406B4158486804F034FB84
:100F8000204607F02BF8BDE8104001F04BBA10BD29
:100F900088F20220002805D0034AD16B016001B11C
:100FA0004860D0637047000088F202202DE9F041CC
:100FB000044606F0DDFD2848E41C24F00305016C1E
:100FC0002D1DA94200D90D46C46B13E054F8042C22
:100FD000AA420ED184B1216809B162684A60616891
:100FE00009B122680A60C26BA24231D12168C16393
:100FF0002EE02468002CE9D18046816BC0680F1870
:1010000057F8040C3E1A306838B1002007F050F849
:1010100057F8040C3E1A3068D0B97068A84217DB44
:101020003044441B3046241D06F0FAFFD8F80C105B
:10103000491BC8F80C10D8F814102944C8F814102B
:101040007068401B02D0314604F0CEFA44F8045CCC
:101050002046BDE8F081000088F2022010B500248F
:1010600006F086FD0C490F2001EBC002526C1AB14C
:1010700001EBC000406C08E0401EF5D508E0416877
:10108000A14200D90C46806810B180680028F6D1D2
:10109000A4F10C0010BD000088F202200549CA69C5
:1010A000521CCA61496B01EBC0010A78521C0A70DC
:1010B00000F034B888F2022010B500F0A5FAFFF76E
:1010C000CDFF64220849B0F5800F04D990FBF2F4FB
:1010D000086A444303E0096A4143B1FBF2F401F0BA
:1010E000A1F9204610BD000088F202200A490268DA
:1010F0004B6B52F8082C03EBC2021378022B03D37C
:10110000CB690BB15B1ECB611178491E11700021B8
:10111000016008467047000088F20220034904225B
:1011200002EBC000496B08580830704788F2022073
:1011300070B514460D46064600F066FA204600F0EB
:10114000D9F90300174804EB840109D050F82100B5
:1011500041688068711A2A1A184600F051FF1CE095
:1011600000EB8104A268B24201D0012200E000221B
:10117000E368AB4201D0012300E000231A430CD006
:10118000236943B150F82100816840686A1A311A16
:10119000184600F0B9FEC4E90265BDE8704001F0F0
:1011A00041B90000E0F4022010B5C2B2CBB2D21AAD
:1011B00000D5524293B25B43C0F30722C1F3072428
:1011C000121B00D55242000C92B2A0EB114002FB60
:1011D000023200B2002801DA404200B280B200FBC5
:1011E000002010BD10B50021084600F0BFF943F6FD
:1011F000FF725042BDE8104013460146AFF3008035
:101200002DE9FC411C4615460E46074600F0FCF948
:10121000042002F0E7FA804612484069C16C006D74
:101220000F4406440D440444ADF80070ADF804507A
:10123000ADF80260ADF80640684603F09BFD07E09C
:1012400023462A463146384601F0E8FF03F054FDB4
:101250000028F5D1404602F0C5FA01F0E3F8BDE8F8
:10126000FC8100002C0100202DE9F0411C461646AF
:101270000D460746022B02DB0020BDE8F0811C2052
:10128000FFF794FE0028F8D00DB105610AE0094A85
:1012900052F8241009B905E011460A68002AFBD16A
:1012A0000969016184618682002101604160C0E9B1
:1012B0000217E2E77401002070B51D46FFF7D4FF66
:1012C000040009D000F00EF8E068006820B9034877
:1012D000006800EB85008465204670BD4001002059
:1012E000FFF758BE70B5C0B38269022A36DA2149C9
:1012F000531C0C789C4200DA0B701F4C54F82210DF
:1013000019B944F8220032E019464B68002BFBD192
:1013100006E0CB68C5681B682D68AB4203DD096831
:101320000029F6D11AE0C1B1CB68C6681B683668DF
:10133000B3420CD1838A012B05D008E01946DB6843
:101340001B68AB4203DB0B68002BF7D129B14B685C
:1013500033B118604A68426004E0FFE7012070BDC5
:1013600044F822004860884200D10021016000203A
:1013700070BD0000920100207401002010B503E050
:101380000468FFF7AFFF20460028F9D110BD000028
:1013900010B50C4B8269002153F82240844205D1DC
:1013A000046843F82240026802B1516042680AB101
:1013B0000368136002680AB14368536001604160CA
:1013C00010BD00007401002000207047022801DBDE
:1013D00000207047054951F8200004E0C168096801
:1013E0000029F6D000680028F8D170477401002069
:1013F00010B5002400E0012400F004F80028FAD120
:10140000204610BD0B4810B50068002410B180477D
:1014100000B1012402F03CFF00B10124064800683D
:1014200010B1804700B101240448006800B1804732
:10143000204610BD48010020800100207C010020D2
:1014400008B50B46002805D0009281888268C088C4
:1014500000F001F808BD10B50828029C30D008DC67
:1014600004FB01F401280AD0022813D0042804D177
:101470001CE0102828D020282CD0002010BD04EB20
:10148000D30003F00701105CC1F10701C84000F070
:10149000010010BD04EB93000621105C01EA43013A
:1014A000C1F10601C84000F0030010BD04EB530079
:1014B000D907105C02D000F00F0010BD000910BD6C
:1014C00004FB0130105C10BD481004FB003032F802
:1014D000100010BD881004FB003052F8200010BD31
:1014E000034951F82000C1688A6A082110470000AA
:1014F000740100200021022802D2024951F8201074
:1015000008467047DC02002070B515460E460446BA
:1015100000F07AF82A463146204601F0DBFE04004E
:1015200002D000203060286000F07CFF204670BDB3
:1015300070B50C46054600F067F82146284601F0D4
:101540000FFBBDE8704000F06DBF0000024951F88C
:10155000200000690068704774010020024951F8BA
:1015600020000069406870477401002070B50C4687
:10157000054600F049F8044800684584848400F07A
:1015800051FF002070BD00004001002070B501F047
:1015900043F81B4C2E20207000F063FF194806F022
:1015A0008DFA01F03DFF054601F0C4FEC0B10026F2
:1015B00001F0D4FEB0B10020064307D001F0D7FE01
:1015C000064601F0C0FE314602F006F90021084649
:1015D00000F034FD03F0A0F8FFF73AFC206B09E0BF
:1015E0000126E5E70120E7E7006800B18047206BAE
:1015F000406820630028F7D10120A070284670BD04
:101600002C01002054F3022070B5184CE06820B182
:1016100000F025FF6168884204D000F035FF00F03B
:101620001EFF6060E068401CE06001281CD106F0ED
:10163000B9F905462068854216D0002813DBFFF76C
:10164000C3FE01462068C0EB4012206900EB820215
:101650009167C5EB4511064A00EB8100011D116041
:10166000806FFFF78BFE256070BD0000C401002075
:10167000400100201CB5040004D10E480068046E2F
:10168000002C16D0FFF7C0FF2046FFF707FD0090A3
:1016900044696846FFF72AFD4CB12046FFF7FEFC7F
:1016A000019081688968884701A8FFF71FFD00F055
:1016B000B9FE1CBD4001002001490A4600F002B8F5
:1016C00001F0FFFF2DE9F04387B015460C465FEAB5
:1016D000000846D0FFF798FF002000F075FC814617
:1016E00021480068066E4046FFF7D8FC009000686D
:1016F000806900F031FC074640F6FF70C44204D117
:101700000098B0F90440B0F906500098611E0289B3
:10171000ADF804401144ADF808104189681E084432
:10172000ADF80650ADF80A0002F0FCFB6846FFF782
:10173000DDFC01A803F01EFB06E02A4621464046D8
:1017400000F0D0FA03F0D8FA0028F6D1384600F0BD
:1017500003FC304600F090F9484600F035FC00F0FC
:1017600061FE07B0BDE8F083400100202DE9FE4F87
:10177000984691468A46834600270C9EFFF744FF11
:10178000184819490068407C51F82040E168096810
:10179000042903D02468002CF8D100E01CB9FFF71D
:1017A00015FE041E1BD0E0680121C26A2046904746
:1017B000050011D02469A0688047401C02D10B4C61
:1017C00046F001060096CDE9015443464A4651468B
:1017D000584600F0E5F9074600F024FE3846BDE81B
:1017E000FE8F00004001002074010020B8EA0008CC
:1017F00038B504001CD0FFF707FF0E480068006EE4
:10180000A04201D100F09AFB2046FFF747FC009070
:10181000406908B100F0EFFD00980068FFF760FD37
:101820006846FFF763FC2046FFF79CFB00F0FAFDDB
:1018300038BD0000400100202DE9FF4F83B09A46DB
:101840008B460746FFF7E0FEDFF83891D9F8000035
:10185000447C4D4800570128204606DD01F070FD0C
:101860000546204601F080FD05E001F051FD0546EA
:10187000204601F053FD04461FB302A901A8FFF75B
:1018800057FEB7F90000002800DA0020B7F902601F
:101890008046002E00DA002601984119B7F90400AD
:1018A000491E06F0F3F9054602980119B7F906003A
:1018B000491E06F0EBF9A5EB0802841B521C641CC0
:1018C00003E04FF0000846462A46BAF1000F01D166
:1018D000C4F1000A002A51DD002C4FDD1098009061
:1018E000534631464046FFF741FF5FEA000A10D0F9
:1018F00000F07CF80746A04206D0D9F80000806CC2
:1019000010B1322103F0AEFD504600F0B5F80025CD
:1019100023E059460598884700F084FD012007B070
:10192000BDE8F08F611BB94202DA504600F088F83A
:101930003DB172194146504600F0C6F85046FFF7D7
:1019400099FE5946059888471048016809B100205A
:1019500088475046FFF7B0FE3D44A542E2DB5046C3
:10196000FFF746FF002000F087F8A74206D0D9F81D
:101970000000806C10B1332103F074FD00F052FDC3
:101980000020CCE74001002090010020F802002058
:1019900038B505004FF0000411D0FFF735FE28469A
:1019A000FFF77CFB0090006800698068804702F0C8
:1019B000BDF804466846FFF799FB00F033FD20466A
:1019C00038BD38B504000ED0FFF71EFE2046FFF7E5
:1019D00065FB00F1180400906846FFF787FB00F0F4
:1019E00021FD204638BD002038BD000038B5044632
:1019F0000025FFF709FE1CB908480068046E44B1D1
:101A00002046FFF74BFB0090B0F90A506846FFF7FD
:101A10006DFB00F007FD284638BD000040010020A6
:101A200070B505460024284603F080FF641C18B1F9
:101A3000BDE8704000F07AB8052CF4DB70BD000002
:101A400038B50C46050004D10A480068056E002D23
:101A50000FD0FFF7D9FD2846FFF720FB0090B0F923
:101A60000A10A14200DD44816846FFF73FFB00F009
:101A7000D9FC38BD40010020F8B50546FFF7C4FD8C
:101A8000104E3068046ECDB10CB100F057FA02F080
:101A90003DFB2846FFF702FB009031680D660068A9
:101AA000FFF720FC6846FFF721FB01F0F9FE01F08B
:101AB00073FE00BF00F0B6FC2046F8BD00F03EFA11
:101AC000F8E70000400100207CB515460E460400F2
:101AD00004D115480068046E002C24D0FFF794FD53
:101AE0002046FFF7DBFA2DB20090C58034B2848027
:101AF00001F052FE0098406980B1FFF7CFFA009ADA
:101B00000190B2F908108180B2F90A20C28011B1A7
:101B10000AB10480458001A8FFF7E8FA6846FFF79C
:101B2000E5FA00F07FFC7CBD4001002001490A4637
:101B300000F002B801F0FFFF7FB515460C46060025
:101B40002DD0FFF761FD3046FFF7A8FA40F6FF7190
:101B50000190CC4203D1B0F90440B0F9065002899B
:101B6000611E1144ADF80840ADF80C104189681EA3
:101B70000844ADF80E00ADF80A5001A8FFF7B6FA18
:101B800002A803F0F7F806E02A462146304600F0A6
:101B900091F803F0B1F80028F6D100F043FC7FBDC6
:101BA0002DE9FF4FDFF8E8B083B01C46DBF80010EA
:101BB000DDE9106092464FF000084B7C42461299D6
:101BC000FFF752FB050060D028698068804701F06C
:101BD000ADFF81460AFB09F1C91DCF08FFF76CFA7A
:101BE000F10705D1C11700EB9170801000EB4000A8
:101BF000002C09DC1FB11838B0FBF7F000E0002022
:101C00006442A04200DC0446F00707D10090DDE901
:101C100003012346524600F073FB8046002C03DC90
:101C20002846FFF75DFB30E004FB07F01830F107B2
:101C300002D0FFF765F901E0FFF772F906001CD04A
:101C4000FFF72CFA01900560039981800499C18007
:101C5000A0F808A04481C0F81480C0E9037901A865
:101C6000FFF744FA1298AE602861DBF80000407C70
:101C7000A861304607B0BDE8F08F2846FFF730FB7B
:101C8000B8F1000001D0FFF76DF90020F2E7000085
:101C900040010020054B30B41B68054C5B7C54F8B8
:101CA00023301B6930BC06F08DBE000040010020CF
:101CB00074010020F8B515460E460746FFF7EEF909
:101CC000009000681621C068426A002090470446D0
:101CD0006846FFF70BFA002C03D02A4631463846F7
:101CE000A047F8BDF8B516460F46050012D0FFF71D
:101CF000D5F9009044696846FFF7F8F92846FFF7E0
:101D000047FE0346082800DD2CB1324639462846F6
:101D100006F022FFF8BD32463946284607F0BCF8E7
:101D2000F8BD10B5002821D009B30AB3B1F90040BD
:101D3000B2F900309C4200DA23460380B1F9024038
:101D4000B2F902309C4200DA23464380B1F90440E4
:101D5000B2F904309C4200DD23468380B1F90610BD
:101D6000B2F90620914200DC1146C18010BD114637
:101D70000A6802604968416010BD00280BD00388E2
:101D80000B44038083881944818041881144418039
:101D9000C1881144C180704770B50E4D0446D5E925
:101DA0000001884209D10C49884201D13C3000E051
:101DB0000C3807C884E8070006E090E80E0084E8C5
:101DC0000E0005F01BFE2860207A002800D00120BC
:101DD00070BD0000BC02002050F402200448D0E98D
:101DE0000010814201D1012070470020704700009F
:101DF000BC02002010B509490446086820B908480B
:101E00000860084600F0CEFF0749064808602046F3
:101E100006F052FDBDE8104000F05EB9CC02002093
:101E2000397E00088D4300088401002070B500252C
:101E3000FFF7EAFB094CD4E9002082420AD0D2E93C
:101E40000056104605F0E4FD20603146284602F0B9
:101E500067FD012500F0E6FA284670BDB4010020B8
:101E60002DE9FC41154DDDE908742D68B5F90860D0
:101E7000864200DD3046B5F90C60964200DA324603
:101E8000824219DBB5F90A608E4200DD3146B5F9B0
:101E90000E509D4200DA2B468B420DDB00E02C46B3
:101EA000E5682D6825B1042D02D02568002DF6D1F6
:101EB000CDE9007401F05AFBBDE8FC81400100202F
:101EC000B0F90220B1F906309A4213DCB1F90220D0
:101ED000B0F906309A420DDCB0F90020B1F90430B7
:101EE0009A4207DCB1F90010B0F90400814201DC2C
:101EF00001207047002070470146024874220068A4
:101F0000FEF736BA4001002070B515460E460400B3
:101F10000AD0FFF779FB2A463146204606F05AFAE6
:101F2000BDE8704000F07EBA70BD00000249742226
:101F30000968FEF71DBA00004001002010B5FFF748
:101F400063FB01F0DFFB01F0ABFC01F0EBFFBDE850
:101F5000104000F067BA000070B50B4D04462868C9
:101F6000467CFFF751FB022C09D22046FFF72EFAE0
:101F700028B128684474FFF7E1FF0448046000F0CA
:101F800051FA304670BD00004001002018020020C8
:101F900010B50446FFF738FB204601F0D3FBBDE83F
:101FA000104000F03FBA10B50446FFF72DFB204665
:101FB00001F000FCBDE8104000F034BA014988602F
:101FC000704700002C01002010B50446FFF71CFBF1
:101FD000204601F007FC044600F024FA204610BD1C
:101FE00070B50446FFF710FB04480068C56904B1EA
:101FF000C46100F017FA284670BD000040010020BF
:1020000070B514460D460646FFF7FEFA22462946ED
:10201000304601F003FC044600F004FA204670BD8F
:1020200070B50546FFF7F0FA03480068847E8576B0
:1020300000F0F8F9204670BD4001002070B50C4654
:102040000546FFF7E1FA0948224605800848048062
:1020500008480068417C084850F82100C1680B6AB4
:1020600029469847BDE8704000F0DCB9980100208F
:102070009A010020400100207401002070B505463F
:10208000FFF7C2FA03480068047E057600F0CAF93B
:10209000204670BD4001002070B50446FFF7B4FA39
:1020A00004480068B0F92C50848500F0BBF928463C
:1020B00070BD00004001002070B50446FFF7A4FA8F
:1020C00004480068B0F92A50448500F0ABF928466E
:1020D00070BD00004001002002480068002800D0C8
:1020E00000477047E401002002498A6802B988600D
:1020F000FFF7F2BFB401002010B504000ED0FFF7C7
:1021000083FA204605F0A6FF204606F02BFC204669
:10211000FEF728FFBDE8104000F084B910BD38B5C7
:102120000C46050011D0FFF76FFA2846FEF7B6FF00
:1021300000908089204201D0012400E000246846FC
:10214000FEF7D4FF00F06EF900E00124204638BD10
:1021500038B50546002028600648046844B120468A
:10216000FEF79CFF0090006928606846FEF7BEFFFE
:10217000204638BDE402002038B504004FF00000CE
:102180000D46086011D02046FEF788FF0090846855
:1021900044B16846FEF7AAFF2046FEF77FFF009095
:1021A000006928606846FEF7A1FF204638BD0000A0
:1021B000074A002806DB002904DB01231372C2E969
:1021C000000101E000201072014800F003B8000097
:1021D000C8F302203EB504460C221149FEF7FBF875
:1021E000002813D00F480E4D026882B194E80B000E
:1021F0008DE80B00684601A990479DE80E0085E830
:102200000E00002802D16846FFF7F4FD3EBD2046CF
:10221000FFF7F0FD94E8070085E807003EBD0000E9
:102220002CF40220E00100202DE9F0411E46069C1E
:102230001746884605463A46A8687F1C3346D0F8BC
:1022400004C041462846E047641EF4D1BDE8F08151
:1022500070B5B0F90040091BB0F904408C422CDD88
:1022600000F11404B0F902500069521B02FB004057
:10227000CA1800EBE104521ED010B0EBE10501F0EA
:1022800007034FF0FF0102F0070221FA03F0C2F149
:10229000070201FA02F1CEB221780FD001436D1E80
:1022A00004F8011B002D05DDFF2229462046FEF71C
:1022B00080F82C4420783043207070BD30400143BA
:1022C000217070BD10B5B0F90030B0F90240C91AE4
:1022D00000F114030069121B02FB003000EBE10067
:1022E00001F0070302788021D9400A43027010BD33
:1022F000B0F90610026951431430FEF761B80000CE
:102300002DE9F843804602F10F000011470003FB5E
:1023100007F01C46154689461430FEF701FE0600FC
:1023200018D0FFF771F93046FEF7B8FE0090A0F81C
:102330000080A0F802908580C48007498160012157
:10234000818107616846FEF7D1FE00F06BF83046E8
:10235000BDE8F8830020FBE744EB000870B5B0F956
:102360000660B0F904400B6800F1140596421BDDCD
:102370000069A34202FB005000EBE30214DA641E82
:10238000E010A0EBE30512F8010B03F00704A040F6
:10239000C4B206E045B1083312F8014B23F007033D
:1023A0006D1E002CF6D004E0002070BD6006040E07
:1023B0005B1C2006FAD5FF2C07D0184602E0640605
:1023C000240E401C6606FAD400E0D81DC4436407FE
:1023D00005D006E012F8014BFF2C09D108306D1E24
:1023E000F8D5C01A401C0B6070BD6206140E401C6C
:1023F0002206FAD4F5E738B50546FFF705F9284671
:10240000FEF74CFE00908189491E0CB2848168461B
:10241000FEF76CFE14B92846FEF7A4FD00F002F8A2
:1024200038BD00000348C168491EC16001D100F0F9
:1024300035B87047C401002010B54FF4A0510348CF
:10244000FEF788FD0248FFF7B9FD10BD30030020FC
:1024500084E6000810B5012009F020F810BD012025
:10246000704710B50AF050FE10BD000010B50021F5
:1024700002A008F01FFC0349086010BD47756953AE
:10248000656D00002001002010B54FF0FF310248BB
:10249000006808F081FC10BD2001002010B5024842
:1024A000006808F021FC10BD200100200EB508B125
:1024B00002AA00E00022002301A9684600F002FB06
:1024C0000EBD0000074910B50C7818B10120087046
:1024D000801E03E0002008706FF07F4000F026FDB2
:1024E000204610BD2D01002010B5082A0EDC034641
:1024F000012A18D0022A56D0042A76D010F8042BCC
:1025000003F8012B491EF9D1012010BD102A08DC67
:102510004FEA000230F8043B22F8023B491EF9D191
:10252000F2E7002010BD10F8042BD207120E491E4E
:1025300034D010F8044B491E04F0010442EA84121E
:102540002CD010F8044B491E04F0010442EA441256
:1025500024D010F8044B491E04F0010442EA04128E
:102560001CD010F8044B491E04F0010442EAC402D6
:1025700014D010F8044B491E04F0010442EA84020E
:102580000CD010F8044B491E04F0010442EA440246
:1025900004D010F8044B04F00104224303F8012B8B
:1025A0000029C0D1B0E710F8042B9207120E491E83
:1025B00015D010F8044B491E04F0030442EA04123B
:1025C0000DD010F8044B491E04F0030442EA8402C3
:1025D00005D010F8044B04F003042243491E03F80D
:1025E000012B0029DFD18FE7FFE710F8042B12073A
:1025F000120E491E05D010F8044B04F00F042243BC
:10260000491E03F8012B0029EFD17DE738B50024DE
:10261000009400F01DF838BD0B4810B5416B00293F
:1026200010D101214163FFF707FFFEF743FC01F0E2
:1026300049F90549054838310860BDE810400846A9
:1026400000F0B0BB10BD00002C010020257D00086B
:102650002DE9F0410D460699044601B901461F686F
:10266000082A09DC0E46012A1AD0022A5BD0042A65
:102670007DD0082A13D18DE0102A07DCD3F810C0D2
:102680000E46BCF1000F04D0022389E00020BDE813
:10269000F08101CCB84726F8020B6D1EF9D189E014
:1026A00001CCB847C0074FEA10686D1E36D001CC88
:1026B000B84748EA801000F0FF086D1E2ED001CC0C
:1026C000B84748EA401000F0FF086D1E26D001CC44
:1026D000B84748EA001000F0FF086D1E1ED001CC7C
:1026E000B84748EAC00000F0FF086D1E16D001CCC4
:1026F000B84748EA800000F0FF086D1E0ED001CCFC
:10270000B84748EA400000F0FF086D1E06D001CC33
:10271000B84740EA080000F0FF086D1E06F8018B7C
:10272000002DBDD146E001CCB84780074FEA1068C4
:102730006D1E16D001CCB84748EA001000F0FF0823
:102740006D1E0ED001CCB84748EA800000F0FF08AB
:102750006D1E06D001CCB84740EA080000F0FF0823
:102760006D1E06F8018B002DDDD123E0FFE701CCC3
:10277000B84700074FEA10686D1E06D001CCB84775
:1027800040EA080000F0FF086D1E06F8018B002DDE
:10279000EDD10FE0D3F810C0BCF1000F04D001233D
:1027A0002A462046E04705E001CCB84706F8010B71
:1027B0006D1EF9D101206AE72DE9FF4F8DB0002091
:1027C000DDF86C90164600901D4604460246C9F896
:1027D000000008AB03A902A800F074F918B10020AA
:1027E00011B0BDE8F08F0898854200DD0546604FC6
:1027F0000B9560493868407C51F8201004910969B4
:102800000691FEF76DFE05903868407CFEF7A6FE47
:1028100059498346884201D0012000E000200A90F7
:1028200001CE1A9988478246000E079077D000980B
:1028300070BB0D9800EB04084D480068B0F9080023
:10284000404503DDA0EB0807804600E00027029921
:10285000049801EB840101EB8701CDE900100B998D
:102860000D98421809920E9B40461946521EFFF7DA
:10287000F7FA01200090059818280ADA0298DDE995
:10288000052300EB840000EB8700E91B00F078F8DB
:1028900012E00A9880B1029800EB840000EB8707F1
:1028A0000998A0EB080859463868884701C7A8F17D
:1028B00001005FEA0008F6D1304BD86980B3DDE94A
:1028C000020700EB840007EB8402CDE902022B4CE7
:1028D000361F2B46E46930460299A047FF20316835
:1028E000B0EB116F02D10299096804E0029A1268F4
:1028F000B0EB126F01D1039A1160029906F1040640
:10290000091D02910399091D03916D1EE7D10397DB
:10291000D9F8000040F00100C9F8000021E022E0F1
:10292000FFE70798FF2812D0C0F1FF0202981B684A
:1029300050F824102AF07F409847039941F824006A
:10294000D9F8000040F00101C9F8001005E0029834
:10295000039950F8240041F82400641C6D1E7FF494
:102960005FAF03983CE7039941F824A0E8E7000033
:102970004001002074010020F1330008740200209F
:102980002DE9F05F0C1E16DD5E68014600EB840544
:10299000082A12DC611E012A26D0022A47D0042A06
:1029A0006AD0082A07D1071917F8010DB04745F872
:1029B000040D641EF8D1BDE8F09F102AFBDC5F69AE
:1029C0003FB12246BC46BDE8F04F02235DF804EB60
:1029D000604701EB440700BF37F8020DB04745F8E8
:1029E000040D641EF8D1E6E700EBE10001F00707F3
:1029F00010F801A98146802020FA07F8B5F10405F6
:102A00000AEA0800C7F10701C840B04745F80409C1
:102A10003FB14FEA48604FEA10687F1E641EEFD155
:102A2000C9E719F801A907274FF00108F6E700EBFD
:102A3000A10001F0030710F801A981467900C02028
:102A400020FA01F84FF0060BB5F104050AEA080078
:102A5000ABEB4701C840B04745F804093FB14FEA26
:102A600088604FEA10687F1E641EEFD1A3E703273A
:102A700019F801A9B846F7E700EB6100012710F843
:102A800001A9A7438146B900F02020FA01F84FF0D0
:102A9000040B2D1F0AEA0800ABEB8701C840B047C2
:102AA00045F804093FB14FEA08704FEA10687F1EED
:102AB000641EEFD17FE719F801A901274FF00F0835
:102AC000F6E700002DE9F047224C06461F46A069B4
:102AD00090468946002540B90120A06104F12801F3
:102AE0001D480860084600F05DF9606930B91B4870
:102AF0000068606110B900F00EFC606107B13860D9
:102B00004EB1A06830B960698000FEF74FFAA0604E
:102B100000B901253060B9F1000F0AD0E06830B982
:102B200060698000FEF742FAE06000B90125C9F84B
:102B30000000B8F1000F0AD0206930B96069800048
:102B4000FEF734FA206100B90125C8F800002846D4
:102B5000BDE8F08774020020117E00088801002083
:102B6000044AB2F9002002600348B0F9000008608E
:102B700070470000980100209A010020B0F9003051
:102B8000B1F90020934200DA0280B0F90230B1F9C5
:102B90000220934200DA4280B0F90430B1F90420F7
:102BA000934200DD8280B0F90620B1F906108A4216
:102BB00000DDC180704770B5B1F90040B2F9003056
:102BC0009C4200DD23460380B1F90250B2F9024075
:102BD000A54200DD2C464480B1F90460B2F90450EE
:102BE000AE4200DA35468580B1F90610B2F906200A
:102BF000914200DB1146C1809D4201DBA14201DA16
:102C0000002070BD012070BD014602480068407C74
:102C100000F002B8400100202DE9F8430126894662
:102C2000044602285DDA304F7A6802B190472E4D93
:102C30005FEA090005F1100532D0012803D0B9F18F
:102C4000020F4ED118E055F8240088B92046FEF74F
:102C5000BDFB009018B3C0680D21426A68469047DA
:102C600002003ED049460098904755F824000026BF
:102C7000401C45F8240034E02046FEF7A7FB0090F6
:102C800068B1C0680D21426A68469047040028D0A8
:102C9000386800B1804749460098A047002620E0E8
:102CA00055F82400A846012812D12046FEF78EFBD5
:102CB000009068B1C0680D21426A684690470500DF
:102CC00006D0386800B1804749460098A8470026DA
:102CD00058F8241009B1012200E00022891A48F8AE
:102CE00024103046BDE8F883A402002030B581F0FE
:102CF0007F43FF2480F07F4094EA116101D120F0EE
:102D00007F43010E5143B1FBF4F100F0FF15C1F117
:102D1000FF0203F0FF14544301FB05444FF0FF157D
:102D2000240A05EA1323C0F30720534340F08070C0
:102D300001FB003104F0FF1001F0FF21084380F097
:102D40007F4030BD2DE9F05F0646DDF8389015462E
:102D50000C4600200D99804688421ED2DFF840B014
:102D60000C9F4FF0FF0A02CE08CCAAEB116202FBC7
:102D700009F2B2FBFAF0C2B221F07F401946DBF84B
:102D80000030984720F07F4001C57F1EEBD10A98A4
:102D900004EB800408F10100DCE7BDE8F09F0000CF
:102DA000740200200249CA6A4260C862704700008B
:102DB0002C01002010B5830702D520F8021B521EFB
:102DC000530811D001EB0144042B09DB10C01B1F79
:102DD00010C0042B40F8084B40F8044CF6DA01E030
:102DE00010C05B1E002BFBD1D20700D0018010BDAC
:102DF00070B5054600240AF099FD002618E0102061
:102E000010490860012006F074FD10200D49091FCB
:102E100008606006040E20210A48143806F092FF6C
:102E200008B1601CC4B2012006F063FD701CC6B27C
:102E3000082EE4DB15B90AF019F801E009F0FCFFEF
:102E4000204670BD140C014070B504460AF078FDB0
:102E500010201249086000251DE0E00920B1202063
:102E60000E49091F086002E020200C490860600636
:102E7000040E012006F03DFD10200849091F0860DE
:102E8000012006F036FD102004490860012006F0FC
:102E900030FD681CC5B2082DDFDB70BD140C01408D
:102EA0000146CA1701EB92729210A1EB820292B90D
:102EB000642091FBF0F200FB121050B94FF4C8707F
:102EC00091FBF0F200FB121008B9012070470020BE
:102ED000FCE70120FAE70020F8E7000070B5FF23C7
:102EE000104CB3EB116F05D12346050E1B680AD0B9
:102EF000FF2D14D00C4B02EB0212D2B21B68984784
:102F00002168084070BD514201EB01114FF07F4232
:102F100020F07F4002EB01610843184070BD01EAD8
:102F2000030070BD180300207402002002490A68E3
:102F30000860104670470000180300200449054A45
:102F40000968497C52F8211009690968084700009E
:102F500040010020740100202DE9F04F05468DB09E
:102F60007B48DDF860901A9C00681E4617464FF0BB
:102F7000000A78B11B9B199ACDF808900593CDE90A
:102F80000324DDE91623CDE90023046833463A46DD
:102F9000284680E0DDE9160201EB060805EB070C88
:102FA0001043A8F10108ACF1010C012806D0C9F1C9
:102FB00008000590002002910990C6E0654802686B
:102FC000B2F90A30581A002806DD361A002E63DDE1
:102FD0001946199B00FB0344B2F90E00A8EB000050
:102FE000002802DD361A002E56DDB2F90C00ACEBDB
:102FF0000000002800DD3F1AB2F908300020AB4283
:1030000035DD581B3F1A4B46B9F1080F26D006DCB8
:10301000012B0BD0022B11D0042B28D116E0102B42
:103020001ED0182B1FD0202B21D11CE020F007032D
:1030300004EBE0041D4400F0070018E020F0030357
:1030400004EBA0041D4400F0030010E020F0010395
:1030500004EB60041D4400F0010008E0044404E0B7
:1030600004EB400401E004EB800405440020002F41
:1030700012DD1B9BDDF864C0CDE90403CDE90069D6
:10308000CDE902C4527C34483B4650F82200C26865
:1030900054680A462946A0470DB0BDE8F08F17993D
:1030A000029808440C902B49401E00900A68B2F91F
:1030B0000A30834241DCB2F90E10029881423CDBB7
:1030C0004FF0000BD84603950A9434E0BBF1000F93
:1030D00005D10A984FF0080B10F801AB0A9005993A
:1030E000ABEB090B3AFA01F00AFA09F101F0FF0A19
:1030F00004D118490968097C890716D4154909685B
:10310000C96B0A680B921B9A0AB152F8200008603A
:1031100016990398009B4218521E029900F07EF8FF
:103120000C490B980968C96B08600399169808F157
:10313000010808440390B845C8DB0998401C099071
:103140000C980290199804440998B042A7DBA3E7B1
:10315000940100204001002074010020F0B40C46CE
:1031600012490968B1F90A30A3421CDCB1F90E30EA
:10317000A34218DBB1F90830834200DD1846B1F9EB
:103180000C30934200DA1A4682420CDB4B7C084931
:1031900051F8235013462246E9688E6801462846B6
:1031A000B446F0BC6047F0BC70470000400100200E
:1031B000740100200A46174930B40968B1F90A3091
:1031C000934225DCB1F90E30934221DBB1F908308E
:1031D00083421DDCB1F90C30834219DB0B7C0E4CB1
:1031E000DB0709D0497C54F82130D968CC69014605
:1031F000A44630BC18466047CB6B497C1B6854F82A
:103200002140E1688D6901462046AC4630BC6047EC
:1032100030BC7047400100207401002038B5134CC9
:103220002468B4F90850854200DD2846B4F90C50F2
:10323000954200DA2A46824217DBB4F90A508D42E1
:1032400000DD2946B4F90E509D4200DA2B468B4230
:103250000BDB0093647C064B53F82440E3681D6944
:1032600013460A4601462046A84738BD40010020C3
:1032700074010020082104F0B3BA000002480921BB
:103280000068407C04F0ACBA40010020092104F041
:10329000A7BA70B500252C462046FEF797F800B176
:1032A0006D1C641C022CF7DB284670BD02480068C8
:1032B000407C00F003B800004001002010B5FEF78C
:1032C00085F8002805D0C168CA6ABDE8104002210F
:1032D000104710BDF8B515460E460124FEF776F8E6
:1032E000009058B1C0680421426A684690470300C4
:1032F00004D02A4631460098984700242046F8BD5D
:1033000002480E210068407C04F06ABA40010020A7
:10331000032104F065BA032004F0D3BA042104F0B9
:103320005FBA0000024801210068407C04F058BAEE
:10333000400100200148006870470000A4010020FF
:10334000012104F04DBA012004F0BBBA0248022169
:103350000068407C04F044BA400100200148406805
:1033600070470000A4010020022104F039BA0220B5
:1033700004F0A7BAAFF300802DE9F041060008D0B1
:10338000B76837B11248816819B13468B4F5807FE5
:1033900002DD0020BDE8F08101688C4200DD0C46B2
:1033A0000025804609E000BF57F82500FFF7C6FD5D
:1033B000D8F8081041F825006D1CA542F4DBD8F8B8
:1033C0000410444609B130468847A068E2E700008F
:1033D000F40100200449054A0968497C52F821108B
:1033E0000969496808470000400100207401002075
:1033F0007047000010B500F01F01074A074BC0F3EB
:103400004514C0F3C4201B5D105C515C00EB03202D
:1034100000EB014010BD00001CE700083CE700087D
:10342000F8B500F0B9F900F049F8040040D10025E2
:103430002846FDF7CBFF009048B1C0680C21426AD6
:1034400068469047010007D00098884704436D1CE8
:10345000022DEDDB14B12BE00120F8BD00F048F89F
:10346000144815490068884222D0012543F6FF76AA
:103470002846FDF7ABFF0090C0B12846FEF76CFD73
:10348000042000F0AFF90021324633460846FFF72A
:10349000C5FE002000F0A6F900980E21C068426A1F
:1034A00068469047010001D0009888476D1EDFD51F
:1034B0002046F8BD3C010020785634FF10B50A4C78
:1034C000A06860B920688000FDF770FDA06040B181
:1034D00004F10C01054808600846FFF763FC002072
:1034E00010BD012010BD0000F4010020717D000816
:1034F0002DE9F047FFF7CDFE07460024DFF8608096
:103500002AE02046FDF762FF28B3D8F8000090F8C3
:10351000119044742046FFF7ADFE082817DC1148CF
:10352000114950F824000069884210D02046FFF766
:10353000ADFE0646002508E0E8B2FFF74BFF024665
:10354000E9B2204600F054F96D1CB542F4DBD8F81E
:10355000001081F81190641CBC42D2DBBDE8F087FA
:103560004001002074010020A0EA00082DE9FF4F6F
:1035700083B01646DDE910408B46C0684769426A51
:103580007AB1012111A8904705000AD00698CDE92B
:10359000000433465A4603991198A84707B0BDE87E
:1035A000F08F57480068407CFDF79AFF8246082854
:1035B00001DC012005E0BAF1100F01DC022000E07F
:1035C00004208046002596E04046B8F1010F05D062
:1035D000022871D0B8F1040F25D17CE0BAF1090FAF
:1035E00021D2DFE80AF08605213F3F595959590099
:1035F000039815E001465A461198B847C5F10701EE
:1036000088404FF67F722178EA40114001436D1CDB
:10361000217004EBE50425F00700054109F10100E4
:103620008146B042E6DD64E0039817E001465A4661
:103630001198B8470621A1EB450188406B004FF671
:103640003F722178DA40114001436D1C217004EB78
:10365000A50425F00300054109F101008146B042AF
:10366000E4DD46E0039813E001465A461198B84756
:103670000421A1EB850188402178AB000F229A40FC
:103680001140014321702C4485F0010509F101002E
:103690008146B042E8DD2CE0DDF80C9007E0014601
:1036A0005A461198B847207009F101094444484628
:1036B000B145F4DD1DE0FFE7DDF80C9007E00146C1
:1036C0005A461198B847208009F1010944444846F8
:1036D000B145F4DD0DE0DDF80C9007E001465A46F7
:1036E0001198B847206009F1010944444846B145A2
:1036F000F4DD0BF1010B06998B457FF765AF4DE7C4
:103700004001002010B50D4C0D492068407C51F857
:10371000200048B1C16811B10968042901D00068CE
:10372000F7E708B1FDF734FE20680021016600F1DB
:1037300008014161BDE8104000F02EB840010020B2
:10374000740100200149096849680847F001002018
:10375000044909680A7C520701D5C96B00E0896BEE
:1037600008607047400100207CB5094C0546206880
:10377000417C084850F82100C1680A6B69469047AF
:1037800020686A4629460830FFF715FA7CBD00001C
:1037900040010020740100200448016804484A7C6C
:1037A000083150F82200C268126B10474001002017
:1037B000740100200149096809680847F0010020E8
:1037C000044909680A7C520701D5896B00E0C96B7E
:1037D0000860704740010020014AC2E900017047BB
:1037E000A40100200149096889680847F001002008
:1037F000F8B515460E460124FDF7E8FD009058B1D6
:10380000C0681021426A68469047030004D02A46E7
:1038100031460098984700242046F8BDF8B5154673
:103820000E460124FDF7D2FD009058B1C068032177
:10383000426A68469047030004D02A463146009801
:10384000984700242046F8BDF8B515460E460124D9
:10385000FDF7BCFD009058B1C0680B21426A684674
:103860009047030004D02A46314600989847002428
:103870002046F8BDF8B515460E460124FDF7A6FD15
:10388000009058B1C0680A21426A68469047030018
:1038900004D02A4631460098984700242046F8BDB7
:1038A00010B5074C2068006BFFF748FBFFF788FF57
:1038B0002068406BFFF742FBBDE81040FFF748BFB0
:1038C0004001002010B500231A4610491048FDF7AA
:1038D000F3FCFFF715FD60B14FF4A072F02100205A
:1038E000FFF7B2FF4FF4A072F0210020FFF7C2FFF4
:1038F0000BE0F0224FF4A0710020FFF7A5FFF022AB
:103900004FF4A0710020FFF7B5FF10BD78DF00086D
:103910003CDF000803460020704700002DE9FF4F00
:103920008DB01746674ADDF870901E9E2098126889
:103930001D4600248AB11D9B1F98CDE90293CDE955
:103940000460DDE91A03CDE9000314682B463A460A
:103950000D98A04711B0BDE8F08F0D9A01EB050856
:1039600002EB070CDDE91A231A43A8F10108ACF1B8
:10397000010C012A06D0C9F108004FF0000B02919A
:1039800005909CE0504A1268B2F90A40631A002B75
:1039900006DDED1A002DDDDD21461D9C03FB0466CE
:1039A000B2F90E30A8EB0303002B02DDED1A002D57
:1039B000D0DDB2F90C30ACEB0303002B00DDFF1AB5
:1039C0000D9B1C1AB2F90830A3420DDDA3EB040CC9
:1039D0000CEB0003181A20F007000444A7EB0C07B7
:1039E00006EBE30603F00700002FB3DDDDF874C03B
:1039F0001F9BCDE902C6CDE90403CDE90059527CF5
:103A000032483B4650F82200C26855680A462146B3
:103A1000A8479FE71B99029808440C902A49401E2A
:103A200000900A68B2F90A30834242DCB2F90E1003
:103A3000029881423DDB4FF0000A0D980A96D0466D
:103A4000039034E0BAF1000F05D10A984FF0080A4C
:103A500010F8014B0A900599AAEB090A34FA01F013
:103A600004FA09F4E4B204D117490968097C89070A
:103A700017D415490968C96B0A680B921F9A0AB1D5
:103A800052F82000086003991A98009B0A18DDE993
:103A90000210521EFFF7C2FB0B490B980968C96B55
:103AA000086003991A9808F1010808440390B84582
:103AB000C8DB0C9802901D980BF1010B0644AB4536
:103AC000A8DB47E79401002040010020740100209A
:103AD000002818D0410817D0810817D0C10817D086
:103AE000010917D0410917D0010A17D0410A17D090
:103AF000010B15D0C10B13D0010C11D0810C11D0CA
:103B0000000E11D02020704701207047022070471E
:103B10000320704704207047052070470820704735
:103B200010207047122070471820704700B50022FF
:103B3000FFF7CEFF012804D0811E062903D80822F2
:103B40000BE0012209E0A0F10901072901D81022A8
:103B500003E011380F2800D82022104600BD00BF16
:103B6000FEE7704770B500260024002508F00EF827
:103B700006463848B6FBF0F437480088A0423CD0EF
:103B800035490C8040F2B27510E02846FFF788F9FD
:103B900040B1B4F5B77F02D3A4F5B77404E0681C54
:103BA00085B206E0A4F26D14681C85B2B4F5B67F48
:103BB000EBD800BF29488580002516E02749888872
:103BC000FFF76EF930B1012D04D11D2C01D31D3C3E
:103BD00009E00CE02248405DA04203D82048405D47
:103BE000241A00E003E0681C85B21C2CE6D200BF5A
:103BF000681C1A498871601CC8711648B6FBF0F140
:103C000000FB11644FF46160B4FBF0F013490870DD
:103C10004FF46160B4FBF0F100FB11403C21B0FBBC
:103C2000F1F00E4948704FF46160B4FBF0F100FB15
:103C300011403C21B0FBF1F201FB120007498870F2
:103C40000B46DA799979988800F00CF803490872E4
:103C5000002070BD805101001C0000205CEF02209C
:103C60000CDE0008F0B503460C461546642093FBB5
:103C7000F0F0C6B2642093FBF0F700FB1730C1B23E
:103C8000132E02DD01F16400C1B20846CF1701EB2B
:103C9000977701EBA707BAB2072092FBF0F700FB7A
:103CA000172082B25719601EDFF82CC01CF80000E4
:103CB000384482B2CF1701EB9777BF10A1EB87078B
:103CC0001FB9032C01DA501E82B2072092FBF0F7D5
:103CD00000FB1720C0B2F0BD00DE000810B50120C7
:103CE00007F076FF08B1FFF73DFF022007F070FFF5
:103CF00010B1022007F064FF052007F061FF07F014
:103D00007BFF10BD704710B506F0CAFC07F080FDC0
:103D100006F0E0FC10BD000010B51E48006840F041
:103D200001001C490860084640681B4908401949C1
:103D30004860084600681949084016490860084666
:103D4000006820F480200860084640681449084054
:103D5000104948600846006820F0A0500860002024
:103D6000C8624FF47F00886000200A4980310860F3
:103D70000848D0F8900020F0805006499031086043
:103D80004FF48000091D08600648091D086007F00F
:103D9000D3FF10BD001002400C00FFE0FFFFF6FE55
:103DA000FFFF00DF1030002070B50546002409F049
:103DB000DFFF00261BE0402012490860012008F0C8
:103DC00008FE40200F49091F08606006040E80218C
:103DD0000C48143805F0B6FF08B1601CC4B20120CD
:103DE00008F0F7FD012008F0F4FD701CC6B2082EA3
:103DF000E1DB15B909F08AFF01E009F06DFF20460B
:103E000070BD0000140C014070B5044609F0BAFF03
:103E100040201249086000251DE0E00920B1802003
:103E20000E49091F086002E080200C490860600606
:103E3000040E012008F0CDFD40200849091F08604C
:103E4000012008F0C6FD402004490860012008F068
:103E5000C0FD681CC5B2082DDFDB70BD140C01402D
:103E600008B506F01DFC05210B4808F047FD78B1A8
:103E7000094808F0BDFCC0B200900122694607481D
:103E8000006806F0C5FE0521034808F02AFD00BFC2
:103E900006F020FC08BD0000004C0040000100209E
:103EA00008B506F0FDFB05210B4808F027FD78B1A9
:103EB000094808F09DFCC0B20090012269460748FD
:103EC000006806F0A5FE0521034808F00AFD00BFC2
:103ED00006F000FC08BD0000003801400C01002085
:103EE00008B506F0DDFB05210B4808F007FD78B1A9
:103EF000094808F07DFCC0B20090012269460748DD
:103F0000006806F085FE0521034808F0EAFC00BFC2
:103F100006F0E0FB08BD0000004400401401002052
:103F200000BFFEE702490120096881F8540070478C
:103F3000400100202DE9F0418AB00446FDF764FB02
:103F4000BCB32046FDF7AAF80190D0E90012CDE9F4
:103F50000412876A056A01A8FDF7C8F8204600F038
:103F6000EBFE060025D0204600F0F3F98046B807A6
:103F700004D52A46414604A801F044F82046FDF73E
:103F80008DF801904046FDF789F806903046FDF720
:103F900085F8039005620698019AC1691162C461AF
:103FA00001A8FDF7A3F806A8FDF7A0F803A8FDF700
:103FB0009DF8FEF737FA0AB0BDE8F0812DE9FC5F05
:103FC0009846DDE90C5491460E460746DDF83CB0B4
:103FD000FDF71AFBDFF828A1DAF81C0004434DB9FD
:103FE000BAF8020048B347480AF148010068407C2B
:103FF00051F82050681C0ED0FDB12846FDF74EF850
:104000000190B0F90010B0F902200F441644B9F144
:10401000000F02D006E000250FE0B0F90430591A75
:1040200001F10109B8F1000F04D1B0F90600801ABE
:1040300000F1010801A8FDF759F80BF12C00FCF77D
:104040006FFF5FEA000B56D0BAF80200401CAAF8D6
:1040500002005846FDF722F80090078007EB09019F
:104060004680491E818006EB0801491EC1800E99D9
:104070000161254A816A2240114381626846FDF749
:1040800035F8DAF814005E4650B1FDF747F80746F8
:104090003046FDF743F80146786948617E6101E0EA
:1040A000CAF814B02946584600F0DCFEA00602D536
:1040B000584600F0F3FCE00704D0DAF82810491C59
:1040C000CAF82810600602D55846FFF733FFA0074C
:1040D0000DD55846FCF7E2FF0090816A41F00201DD
:1040E00081626846FDF702F8584600F0C3FB0121E3
:1040F000584601F0CAF9FEF795F95846BDE8FC9F0D
:1041000008020020400100209F3F3F00064910B5F3
:104110000968002081F85400FDF776FAFFF73CFBB0
:10412000BDE81040FEF77EB94001002010B50446FE
:10413000C168D4E90020172A0DD004DC0E2A0CD067
:10414000142A07D104E0222A0CD0282A02D10BE03D
:1041500000F0ACFD0020E06010BD2146BDE810403D
:1041600000F0CBBC0248F6E7BDE8104000F082BB8F
:10417000785634FF38B5040010D0FDF745FA2046D4
:10418000FCF78CFF00900068FDF7B6FF6846FCF76F
:10419000ADFF2046FCF7E6FEFEF744F938BD00000F
:1041A000F8B5050070D0FDF72FFA284600F098FF0B
:1041B000002867D0284600F0D1FD07460B2128468D
:1041C00001F063F9284600F034FD2846FCF766FF4D
:1041D0000090406A08B1FDF70BFB2C4C002104F164
:1041E0006002A163206952F82030AB4201D142F84D
:1041F0002010264A583252F82030AB4201D142F802
:104200002010A06904E04368AB4200D1416000681F
:104210000028F8D10721284600F079FB009801F02A
:1042200037FC284600F02EFD60690CE0FCF776FFB5
:10423000064640692946A84205D10846FCF76EFFAC
:104240004069706101E00028F0D10098806AC107E0
:1042500002D0A16A491EA162800602D5A088401E34
:10426000A0806846FCF742FF6088401E60802846B8
:10427000FCF778FE002F05DB0448483050F8270093
:1042800000F00CFCFEF7CEF8F8BD0000080200209C
:1042900070B50025FDF7B8F91A4C606B10B1804776
:1042A00000E0012502F0DEFE0028FAD11648006881
:1042B00090F8540038B1A08828B1606A012620B176
:1042C0000068804704E0002602E00120FEF79CFC25
:1042D000FEF7A8F800E0012502F0AAFE0028FAD1B6
:1042E000FDF792F94EB1606A20B140688047002026
:1042F000E06002E00020FEF787FCFEF793F8284616
:1043000070BD00000802002040010020034804495D
:104310000068407C51F820007047000040010020F8
:10432000500200200021022802D2024951F8201038
:10433000084670475002002010B5040007D0FDF772
:1043400063F92046FCF7EAFEC469FEF76BF82046E5
:1043500010BD10B5040007D0FDF756F92046FCF754
:10436000DDFE8469FEF75EF8204610BD70B50500DD
:104370004FF0000408D0FDF747F92846FCF7CEFEC1
:10438000B0F90040FEF74EF8204670BD2DE9F04F21
:104390009BB04FF0000B5E46CDF820B0CDF824B0B6
:1043A000CDF828B0FDF71AFD18B100201BB0BDE80C
:1043B000F08F6846FDF7F0FC0098D04DD04C401CC3
:1043C0000ED10198401C0BD120689DF8081000EB1D
:1043D000400005EB8000007A884201D15846E5E7AD
:1043E000FDF712F9009800280EDB019800280BDB7E
:1043F000C4490098B1F900100844C34900900198DD
:10440000B1F9001008440EE00098401C0CD101984E
:10441000401C09D1206800EB400055F8201005EB46
:1044200080000091406801909DF80900022801D3A6
:10443000206800E02060FCF7C9FFA0B307AA12A91A
:104440002068FDF761F805A800F0BCFB1299009800
:10445000401A009007990198009A401A019020682C
:1044600000EB400055F8201091420AD105EB800086
:10447000019A4168914204D1007A9DF8081088425F
:104480007DD0DDE900019DF80920FCF751FE9F4F2A
:104490007A6812B10021684690479D48216850F81B
:1044A000210020B107E0FFE7FDF7BCFF7DE7DDE974
:1044B000000100F0E4FA0690BA6812B10699684665
:1044C00090478E4F2068383707EBC0014868069A3E
:1044D000824201D0012200E000220DF12009F8B152
:1044E000F2B1486800F0AEFDD0B1206807EBC00023
:1044F000406800F09CFD98B19DE8070008AB83E898
:1045000007001220CDF844900E90206807EBC00001
:1045100040680EA900F0DFFF206807EBC00046608E
:10452000069800F08FFD00287DD00699206807EBE3
:10453000C002516000EB400005EB80009DF80810C0
:10454000007ADFF8B8A188420AF1280A5ED00698FE
:10455000C0B30698FCF7A2FD9DF8081013908DF8E3
:104560003410216801EB410105EB8101097A8DF8D6
:104570003510B0F900200099891A0B9100E0B6E0DF
:10458000B0F902000199081A0C9013A8FCF7AEFDCF
:104590000BA8119011200E90206800EB400105EB54
:1045A000810191E88C000492CDE914379DF8082030
:1045B0000A729DF8281031B10AEBC0014F68069AC3
:1045C0004A6001E022E000270AEBC000D0F8048036
:1045D00006980EA900F038FF21680AEBC100436875
:1045E000434501D04068069001EB410005EB800394
:1045F000DDE91412049883E807003FB1384600F063
:104600006BF918B121680AEBC100476020689DF87A
:10461000081000EB400805EB8802137A0B434CD0DE
:104620004FF4107300E056E00AEBC0000E934368AD
:104630004FF0010B5746DDF818C09C4515D0436874
:104640009BB109B1119608E055F8281008915168FE
:1046500009918DF82860CDF8449040680EA900F0CB
:104660003AFF206807EBC000466020689DF80810FC
:1046700000EB400205EB82021172069959B39DE8E6
:104680000E000DF1200888E80E009DF8281021B1D9
:10469000069907EBC000416008E01E48007808B1A9
:1046A00000F06AF9206807EBC00046600698CDF874
:1046B00044900EA900F00FFF0DE0069858B106983F
:1046C00000F0B5FC38B19DE8070008AB83E80700AF
:1046D00010200E90EAE721689DE81C0001EB4100E4
:1046E00005EB800080E81C00684600F039F905A859
:1046F00000F04CFEFDF796FE70E6000098F40220F4
:1047000018020020980100209A01002004030020D4
:1047100060020020700200202DE9FF5F2D4D6878B7
:10472000002855D12C496861A8630968DFF8ACA05E
:1047300004464864A88068804FF0040902274FF0BF
:10474000FF3B43F6FF7805F148062046FCF73EFEA6
:10475000A0B1CDF800B0CDF80C90CDE9017A0021E0
:10476000424643460846FFF729FC1A4A46F8240009
:1047700050321B4942F8241000F07CF8641C022CD3
:10478000E3DB184FDFF86080DFF86090002400BFA3
:1047900007EBC40000F016FA08EBC40000F012FAB0
:1047A00009EBC40000F00EFA641C022CF0DB306848
:1047B00000F074F9FFF7B6FB01200649687040313C
:1047C0000B48086004B00846BDE8F05FFEF7EABA9F
:1047D000BDE8FF9F08020020400100209D930008D3
:1047E000785634FFB0F40220C0F40220D0F4022046
:1047F000897D000870B586B00D46060031D0FCF703
:1048000003FF3046FCF74AFC0090846AA10723D5D9
:10481000D0E90010CDE90110E00302D5304600F0E8
:1048200077FB5DB1286803906868049003A900983D
:1048300000F0D0F903A901A8FEF7A0F9314601A8BC
:1048400000F0D0F940B140F601000440012C0AD03C
:1048500001A9304600F058FB6846FCF747FCFDF71D
:10486000E1FD06B070BD0098026A816901A800F000
:10487000C9FBF1E70021FFF7BDBFFEB515460E46A7
:1048800004001CD0FCF70AFC0246009090F82800B7
:10489000800711D5314601A8FEF78DF960B1684651
:1048A000FCF724FC2A4601A9204603F0A7F920467C
:1048B000FFF742FD04460CE06846FCF717FCFEBD1E
:1048C0002A4601A92046FFF7D8FF2046FCF726FC20
:1048D000046A002CF4D1FEBD10B50446FCF794FE2A
:1048E000204600F0FDFB0446FDF79CFD204610BD70
:1048F00070B514460D460646FCF786FE224629464C
:10490000304600F0FDFBBDE87040FDF78BBD1FB5E4
:10491000262203910092694600F0EFF81FBD0000C7
:1049200070B586B00D4606460024FCF76DFE0B49B7
:104930000948096850F8210048B10E2105950091F9
:1049400004A9CDE90316694600F060FD0124FDF7D6
:1049500069FD06B0204670BD6802002018020020E4
:10496000044A01EB410102EB81010DC881E80D0011
:104970007047000020F5022010B5FCF745FE00F05E
:10498000EFFCBDE81040FDF74DBD70B5154606467D
:104990008AB00C4651EA05006FD0002E6DD0FCF7AE
:1049A00033FE3046FCF77AFB0590D0E90012CDE9E2
:1049B0000212CDE906127CB1816A0A0607D5890583
:1049C00005D4BDF81810091BADF8181004E0BDF8A7
:1049D0001C102144ADF81C107DB1816ACA0507D5B1
:1049E000490505D4BDF81A10491BADF81A1004E0AA
:1049F000BDF81E102944ADF81E10806AC00302D510
:104A0000304600F085FA05AB93E80700C0E90012D4
:104A100090F8280080070AD506AA02A908A8FDF781
:104A200080F90598026A816908A800F0EBFABDF9DF
:104A30001E00BDF90E10401A0090BDF91C00BDF912
:104A40000C10431ABDF91A00BDF90A10421ABDF93B
:104A50001800BDF90810411A059800F057FD059996
:104A600001F10800FEF78AF80521304600F00DFD3F
:104A700005A8FCF73BFBFDF7D5FC0AB070BD70B58F
:104A80000C460546FCF7C0FD22462946002003F0EF
:104A90008DFB0446FDF7C6FC204670BD70B504468C
:104AA000FCF7B2FD0C4D2868866C0CB90B494C69BB
:104AB0008464204600F0A0FCFEF76EFE2046FCF762
:104AC0002DFB2968B0F90020CA64B0F9020008651E
:104AD000FDF7A8FC304670BD400100200802002010
:104AE00070B50C460546FCF78FFD2146284600F0C0
:104AF000B9FCBDE87040FDF795BC70B50C000546EB
:104B00000DD0FCF781FD2846FFF723FC18B12146A4
:104B1000A56000F07BFCBDE87040FDF783BC70BD74
:104B200010B5FCF7ABF8024900200968486410BDD5
:104B300040010020F8B516460C4605001DD0FCF7D4
:104B400063FD2846FCF7AAFA0090B0F90410B0F90A
:104B50000020891A641AB0F90610B0F90200641E28
:104B6000081A361A6846761EFCF7C0FA3246214605
:104B70002846FFF70AFFFDF755FCF8BD0EB50E48B5
:104B8000006890F8541009B10C4811E0806CFCF7F3
:104B900085FA0090D0E90010CDE901106846FCF7D5
:104BA000A5FA0748C16A11B101A800F01BF801A8D5
:104BB00003F044FB0EBD00004001002040F4022041
:104BC0000802002002490A6802600860704700007D
:104BD000200200200B46B0F90220B0F90010184660
:104BE000FDF7CBB838B50C4605462046FCF756FA1B
:104BF0000146009090F82800800703D46846FCF72F
:104C000075FA12E02846FDF7B9FF0098806920B1D7
:104C100004466846FCF76AFAE7E76846FCF766FA76
:104C2000204600F03FFF002801DA002038BD0120B7
:104C300038BDF8B50546FCF7E7FC6846FDF788FA8D
:104C40001AE001212046FDF76AFA009981B178B196
:104C50000846FCF763FA4068A84209D16946204635
:104C6000009EFDF789FA04463046FFF783FA04E018
:104C700069462046FDF780FA0446002CE1D1FDF795
:104C8000D1FBF8BD38B50446FCF708FA00908169FD
:104C900041B1026A00F0B6F9204600F08DFB0099A0
:104CA000002088616846FCF721FA38BD38B50C460B
:104CB00000280AD0002C08D0FCF7F0F9214600901B
:104CC00000F004F86846FCF711FA38BD00224A806B
:104CD0000A8082880388D21A8A80C2884088101A83
:104CE000C880704710B5FFF734FB002802D0FCF7EE
:104CF00015FAC06910BD00000D4810B5006890F8A5
:104D00005400002806D00B4C6069012803DD401ECA
:104D10006061002010BD2069401C206102F0BCFAD7
:104D200018B1FFF72BFF012010BD6069EFE700000D
:104D30004001002038F4022070B50546FFF7D2FF8D
:104D400008E0AC4201D1002406E0FCF7E7F9006A74
:104D5000A84201D00400F4D1204670BD10B504462D
:104D6000FCF7DCF980690028F9D12046BDE8104045
:104D700000F098BEF0B5384E074687B0306890F81E
:104D8000541041B1354C6169491C6161012905DD4F
:104D9000012007B0F0BDFFF7F1FEF9E7806CFCF7EA
:104DA0007DF92F4D4FF0FF3100902161297821B11D
:104DB00081680291C068039007E090F82810890785
:104DC0003CD5D0E90010CDE902101FB1394602A848
:104DD000FDF7D4FE3068406C78B3009804903068DA
:104DE000406C0168059140680690E86A30B104A8FB
:104DF000FCF77CF9E86AFCF751F9049005A90498DE
:104E0000FFF7E8FE05A902A8FDF7B8FE0DF11000B6
:104E1000FCF76CF9E96A19B102A8FFF7E3FEB0B13B
:104E20003068816C02A8FFF7DDFE80B1DDE9020188
:104E3000C4E90001FFF760FFABE706E06069401ED0
:104E400060616846FCF752F904E06846E0E7606993
:104E5000401E606100209CE74001002038F40220E1
:104E600008020020FEB50D00044647D0FCF716F9F5
:104E700000900021856101622846FCF70FF9009936
:104E80000290C56991F8281001F008062DB1284656
:104E9000FCF704F9019036B115E0C4616846FCF7EF
:104EA00025F902A828E090F8280000070BD5009803
:104EB00005620298C4616846FCF718F902A8FCF77D
:104EC00015F901A818E002A8FCF710F901A8FCF7F1
:104ED0000DF92846FCF722F911E004620BE02846A0
:104EE000FCF71CF95EB990F82810090707D501985E
:104EF0000462009805626846FCF7F8F8FEBD019070
:104F0000056A002DEBD1E8E7202202F077BE000011
:104F100038B5040022D0FCF7C1F8009090F82810B2
:104F2000890718D5406A40B10D49096BA14204D0E8
:104F3000FCF75EFC0099002048622046FFF7FCF970
:104F4000044606E02046FFF7E3FF2046FCF7E6F8BC
:104F5000046A002CF6D16846FCF7C8F838BD00009A
:104F60000802002070B5064615460C460846FCF7B8
:104F7000D5F8806AC00302D54FF4804300E02023B7
:104F80002A4621463046BDE87040AFF300802DE947
:104F9000FF419846164607460D0031D00846FCF7FB
:104FA0007DF80090846A0246A00726D5394601A8FC
:104FB000FDF701FE08B340F601000440012C07D0C4
:104FC000424601A9284602F019FE0098C46912E081
:104FD00000984346026A816901A8FFF7D8FFF4E709
:104FE000B4420AD0424601A92046FFF746FC2046BB
:104FF000FCF794F8046A002CF2D16846FCF776F8C6
:10500000BDE8FF812023FFF7C2BF000070B50C464A
:10501000002550B14CB100BFFCF780F88069A04278
:1050200001D1012501E00028F6D1284670BD10B558
:105030000124FCF773F890F82800C00600D500247E
:10504000204610BD70B5040027D015480068002820
:1050500007DB144951F820102046FFF7D7FF00283E
:105060001AD0124E104D306805EBC0004168204642
:10507000FFF7CCFF316805EBC102516829B100216F
:105080005268A24203D1012202E00121F8E7002286
:105090000143114301D0012070BD002070BD00000C
:1050A0000403002050020020B0F402201802002067
:1050B00090F828309B0711D5B0F900308B420DDCF9
:1050C000B0F904308B4209DBB0F90210914205DCE3
:1050D000B0F90600904201DB0120704700207047C4
:1050E00010B5044605484069002802D0A04201D10D
:1050F000012010BDFCF712F8F5E7000008020020BF
:10510000F0B58BB006004FF0000015460C46049039
:105110000590069007903ED054EA05003BD03046FB
:10512000FBF7BCFF0090D0E90012CDE902122A463D
:105130002146FCF722FE00982A4621460830FCF75B
:105140001CFE0098C7696846FBF7D0FF2A46214637
:10515000384602F09FFD3046FBF7A0FF009090F824
:10516000281089070AD5816941B1026AFFF7FAFE62
:105170000098026A816902A8FFF7F4FE6846FBF70F
:10518000B5FF0320049007AA08A882E8310004A90B
:10519000304600F03BF90BB0F0BD00002DE9F141C5
:1051A00087B000250798FBF779FF0190D0E902123C
:1051B000CDE9031207698669846A01A8FBF796FFA7
:1051C00044F2200814EA080F30D0DFB103A8079991
:1051D000FFF708FDB0B10798FFF760FC60070DD539
:1051E00056B144F30000401C0090002307AA114967
:1051F00003A8FCF721FB05E00120F5E7079800F084
:1052000063F801250798FBF749FF0190816A21EABD
:10521000080181628A0402D541F00401816201A87B
:10522000FBF764FF04498888401E888008B0284640
:10523000BDE8F081ED93000808020020F0B589B0C8
:105240000546FBF72BFF0290866A0469D0E902103D
:10525000CDE9001002A8FBF749FF002C30D0B007C1
:105260002ED52E212846FFF73BFC164C6F462078A2
:10527000401C2070F0044FF00F0609D5CDE90465FD
:105280000797FFF74DFC04A9284600F0BFF810E08F
:105290003846FFF76FFD0AE0CDE904650797FFF791
:1052A0003FFC04A9284600F0B1F8FFF725FD0028CF
:1052B000F2D120782F21401E20702846FFF710FCE5
:1052C00009B0F0BD0802002038B50446FBF7E6FE41
:1052D0000090806A40F601010840012805D0684628
:1052E000FBF704FF204602F0B3FD1448806A002853
:1052F00023D0204602F004FE2046FBF70FFF85690D
:10530000046A18E02046FBF709FF90F82800C04324
:10531000800702D1204602F0ADFD204602F0F0FDEC
:105320002046FBF7FBFE046A002CEBD12846FBF776
:10533000F5FE8569046A002DF6D138BD080200200B
:10534000B0F90010B0F90420914205DCB0F9021068
:10535000B0F90600814201DD00207047012070474E
:105360007FB5094D074C286854F82000002808D064
:1053700018210091694600F049F82968002044F896
:1053800021007FBD6002002018020020094B19682F
:10539000002905D00022814206D108680AB11060B8
:1053A00070470028186070470A4609680029F2D142
:1053B000704700002002002070B50646FBF7AEFEE5
:1053C00005468069002809D0FBF7A8FE0446C0699D
:1053D000B0420ED1FBF7A2FE006AE06170BD00BFD3
:1053E000FBF79CFE0146006AB04202D1286A0862BF
:1053F00070BD0028F4D170BD10B5FFF7AFFC0028D8
:1054000003DBBDE81040FCF7A7BD10BD70B50D4C27
:1054100006460D46206814280DDA3046FBF77EFE5E
:1054200001696E6041B12068401C206028468847B1
:105430002068401E206070BD2846BDE87040FEF721
:1054400075BE00000003002070B50C460546FFF74E
:10545000EEFD002805D021462846BDE87040FFF744
:10546000D5BF70BD7FB50546002000900190029029
:1054700003900C462846FBF751FE0269002A03D030
:105480006846CDE9004590477FBD1FB5CDE90010C6
:105490006946FFF7BBFF1FBD7FB505460E4648684E
:1054A000C9680391CDE901050D202C46009008E064
:1054B0002046FEF74EFF040003D069460396FFF72F
:1054C000C3FF2046FFF708FA0028F1D131462846ED
:1054D000FFF7BAFF7FBDF8B5CC680D46064684B12C
:1054E000FBF7DCFD0090B0F900002168081A20608D
:1054F00000996068B1F90210401A60606846FBF7D5
:10550000F5FD29463046FFF7C7FFF8BD2DE9FF4FEF
:1055100081B09B46C66962E03046FBF7BFFD01469D
:105520000090D1E90004896A254601F420730246FF
:10553000802B09D0B3F5207F029B134406D063F380
:105540000F02029B234405E002EB0B0363F30F02FF
:1055500004EB0B0301F4A06163F30F04B1F5807F4A
:105560000BD0B1F5A06F03994FEA224307D019443D
:1055700061F31F422314039906E00E991314194492
:1055800061F31F420E99231419440FFA82FA61F352
:105590001F440FFA80F917144FEA2048AAEB0901BB
:1055A000A7EB080251EA020002D03046FFF7A0F94B
:1055B0002AB221B2A2EB0900A1EB0A01091AC7EB3A
:1055C0002440C8EB2542821A51EA020002D030463C
:1055D000FFF7DBF90098066A6846FBF787FD002EA7
:1055E0009AD105B0BDE8F08F2DE9F041214D0C4670
:1055F0000646E968A86B0844A119401E814206D8F6
:105600000846096819B941680E4402F009FDA86B03
:10561000A0420AD254F8040C271A386828B97868CE
:105620000644384602F0FCFC3C46304602F058F98D
:1056300010281CD205EBC0073246002120467B6CA7
:1056400003F0B8F957F8440F083400B14460206003
:10565000002060603C6028683044286095F829107C
:1056600029B9E968081AA968814200D2A8603046C1
:10567000BDE8F08188F202202DE9F041054602F0F4
:1056800077FA2A48046CAC4202D8ED1C25F00304DA
:10569000804600680C34A04202D20020BDE8F081B0
:1056A00002F07CFC071EF9D0204602F019F94146B1
:1056B00030E000BF01EBC002526C52B3956845B3B5
:1056C0006B68A34206D2AA681AB395680DB36B68DB
:1056D000A342F8D3D8F84000191B0C301E46814273
:1056E00000D23446284602F09BFC0421D8F834004E
:1056F00001EBC7010023455022463946284603F0F6
:1057000059F9A64203DD2919301BFFF76DFF384612
:10571000C4E7401C1028CDD3204602F0C9FC002865
:10572000C2D0384602F05AFCB7E7000088F20220E7
:1057300001207047F0B40E4C246814B1A446F0BCAC
:1057400060470C4DDFF830C010C8521EE6B2AF5DA6
:10575000C4F30726C4F307441CF806602C5D04EB71
:10576000461404EBC7240C801944EDD1F0BC7047FB
:105770009C0100207CE700087CE8000810B510C8F8
:105780000C601944521EFAD110BD00002DE9F047FB
:105790008146FDF773FD4FF0000807466FF07F4428
:1057A0004546FDF783FD060018D000BF56F82510CA
:1057B000494502D12846BDE8F0876D1CBD42F5DBA6
:1057C0005FF00005484656F82510FBF7EDFCA042B7
:1057D00001D20446A8466D1CBD42F3DB4046EAE711
:1057E0007047000010B5C1B2064A074BC0F307244A
:1057F000C0F307401B5D105C515C00EB431000EBF5
:10580000C12010BD7CE700087CE800082DE9F05FAE
:105810009A46DDE90A8791460C4605468B461646B0
:1058200035F8020B41468847B84701C4761EF7D1C8
:105830005046BAF1200F06D2024649465846BDE806
:10584000F05FFCF751BEBDE8F09F2DE9F05F9A468E
:10585000DDE90A8791460C4605468B46164615F843
:10586000010B41468847B84701C4761EF7D1504620
:10587000BAF1200F06D2024649465846BDE8F05F0D
:10588000FCF732BEBDE8F09F2DE9F04106464069C5
:105890000F463421008801EB8000FBF731FB050047
:1058A00041D0FBF7FBFB044630688069FBF78EFDB7
:1058B000C0B3C1688A6A08219047032810DB042816
:1058C0000DDD082809DD102803DD20200421A0615A
:1058D00008E010200221A06104E0082000E004207C
:1058E0000121A061216170690088E0614843606125
:1058F000FBF7B4FB6169814200DD606104F13400B3
:1059000000212060C4E9025184F83070012F05D0D5
:10591000E1696FF0030202EB8101084460602046F8
:10592000BDE8F081FFE70020FAE700002DE9F0472D
:1059300086B08246FBF7B2FB0390D0E90075D0F841
:10594000249003A8FBF7D2FB29B20FFA87F83E1484
:10595000A1EB0804C6EB2545641C6D1C002C01DD81
:10596000002D03DC002006B0BDE8F087B9F100008F
:1059700014D0FBF793FB0490B0F90440B0F9065043
:1059800004A8FBF7B3FB38B2A04201D1AE425BD012
:10599000324641464846FCF797F855E0FEF7B6FC1C
:1059A000824513D1FDF7BEFC0746FDF7CFFCBC4294
:1059B00001DC85420ADDBC4200DD3C46854200DD5B
:1059C00005462A4621465046FFF7B4F8254A26499F
:1059D00001208DE80700314640462B462246FCF761
:1059E000DFF806465046FBF759FB0390466286B344
:1059F000816A41F48031816203A8FBF777FB30466E
:105A0000FCF73AF807460120FCF75CFD3046FBF74F
:105A1000D8FF174B15496C431B68A20009789847BB
:105A2000144E154C5046C6F800A02568FEF79EFCA3
:105A300020605046FFF702FC002025603060FCF734
:105A400041FD3846FCF718F85046FBF767FB406A03
:105A500089E7FFE703A8FBF749FB5046FFF7EEFB9A
:105A600080E70000B8EA000810EB0008FC02002004
:105A7000AC010020380200208C010020034988423C
:105A800002D101F13C0070470C38704750F40220FD
:105A900010B50446E069FEF783FBE0690028F9D100
:105AA00010BD00000146064A002000BF52F8203019
:105AB0008B4204D0401C0228F8DB4FF0FF307047C7
:105AC000500200202DE9F04107460D4690461C4645
:105AD000069E08E0238842462946384602F024FC08
